{
  "_format": "hh-sol-artifact-1",
  "contractName": "ExPopulusToken",
  "sourceName": "contracts/ExPopulusToken.sol",
  "abi": [
    {
      "inputs": [],
      "stateMutability": "nonpayable",
      "type": "constructor"
    },
    {
      "inputs": [],
      "name": "mintToken",
      "outputs": [],
      "stateMutability": "nonpayable",
      "type": "function"
    }
  ],
  "bytecode": "0x6080604052348015600f57600080fd5b50606d80601d6000396000f3fe6080604052348015600f57600080fd5b506004361060285760003560e01c80632004ffd914602d575b600080fd5b60336035565b005b56fea2646970667358221220579dbf593ab86ab877b177a41a756ef24994670780cfc42f81888838ea998dc364736f6c63430008140033",
  "linkReferences": {},
  "deployedLinkReferences": {}
}