{"contracts/ExPopulusCards.sol":{"ExPopulusCards":{"abi":[{"inputs":[{"internalType":"string","name":"_uri","type":"string"}],"stateMutability":"nonpayable","type":"constructor"},{"inputs":[{"internalType":"address","name":"sender","type":"address"},{"internalType":"uint256","name":"balance","type":"uint256"},{"internalType":"uint256","name":"needed","type":"uint256"},{"internalType":"uint256","name":"tokenId","type":"uint256"}],"name":"ERC1155InsufficientBalance","type":"error"},{"inputs":[{"internalType":"address","name":"approver","type":"address"}],"name":"ERC1155InvalidApprover","type":"error"},{"inputs":[{"internalType":"uint256","name":"idsLength","type":"uint256"},{"internalType":"uint256","name":"valuesLength","type":"uint256"}],"name":"ERC1155InvalidArrayLength","type":"error"},{"inputs":[{"internalType":"address","name":"operator","type":"address"}],"name":"ERC1155InvalidOperator","type":"error"},{"inputs":[{"internalType":"address","name":"receiver","type":"address"}],"name":"ERC1155InvalidReceiver","type":"error"},{"inputs":[{"internalType":"address","name":"sender","type":"address"}],"name":"ERC1155InvalidSender","type":"error"},{"inputs":[{"internalType":"address","name":"operator","type":"address"},{"internalType":"address","name":"owner","type":"address"}],"name":"ERC1155MissingApprovalForAll","type":"error"},{"inputs":[{"internalType":"address","name":"owner","type":"address"}],"name":"OwnableInvalidOwner","type":"error"},{"inputs":[{"internalType":"address","name":"account","type":"address"}],"name":"OwnableUnauthorizedAccount","type":"error"},{"anonymous":false,"inputs":[{"indexed":true,"internalType":"address","name":"account","type":"address"},{"indexed":true,"internalType":"address","name":"operator","type":"address"},{"indexed":false,"internalType":"bool","name":"approved","type":"bool"}],"name":"ApprovalForAll","type":"event"},{"anonymous":false,"inputs":[{"indexed":true,"internalType":"address","name":"previousOwner","type":"address"},{"indexed":true,"internalType":"address","name":"newOwner","type":"address"}],"name":"OwnershipTransferred","type":"event"},{"anonymous":false,"inputs":[{"indexed":true,"internalType":"address","name":"operator","type":"address"},{"indexed":true,"internalType":"address","name":"from","type":"address"},{"indexed":true,"internalType":"address","name":"to","type":"address"},{"indexed":false,"internalType":"uint256[]","name":"ids","type":"uint256[]"},{"indexed":false,"internalType":"uint256[]","name":"values","type":"uint256[]"}],"name":"TransferBatch","type":"event"},{"anonymous":false,"inputs":[{"indexed":true,"internalType":"address","name":"operator","type":"address"},{"indexed":true,"internalType":"address","name":"from","type":"address"},{"indexed":true,"internalType":"address","name":"to","type":"address"},{"indexed":false,"internalType":"uint256","name":"id","type":"uint256"},{"indexed":false,"internalType":"uint256","name":"value","type":"uint256"}],"name":"TransferSingle","type":"event"},{"anonymous":false,"inputs":[{"indexed":false,"internalType":"string","name":"value","type":"string"},{"indexed":true,"internalType":"uint256","name":"id","type":"uint256"}],"name":"URI","type":"event"},{"inputs":[{"internalType":"address","name":"_to","type":"address"}],"name":"approveAddressForLookup","outputs":[],"stateMutability":"nonpayable","type":"function"},{"inputs":[{"internalType":"address","name":"","type":"address"}],"name":"approvedAddressesForLookup","outputs":[{"internalType":"bool","name":"","type":"bool"}],"stateMutability":"view","type":"function"},{"inputs":[{"internalType":"address","name":"account","type":"address"},{"internalType":"uint256","name":"id","type":"uint256"}],"name":"balanceOf","outputs":[{"internalType":"uint256","name":"","type":"uint256"}],"stateMutability":"view","type":"function"},{"inputs":[{"internalType":"address[]","name":"accounts","type":"address[]"},{"internalType":"uint256[]","name":"ids","type":"uint256[]"}],"name":"balanceOfBatch","outputs":[{"internalType":"uint256[]","name":"","type":"uint256[]"}],"stateMutability":"view","type":"function"},{"inputs":[{"internalType":"uint256","name":"","type":"uint256"}],"name":"cards","outputs":[{"internalType":"uint8","name":"attack","type":"uint8"},{"internalType":"uint8","name":"health","type":"uint8"},{"internalType":"enum ExPopulusCards.Ability","name":"ability","type":"uint8"}],"stateMutability":"view","type":"function"},{"inputs":[{"internalType":"uint256","name":"_cardId","type":"uint256"}],"name":"getCardDetails","outputs":[{"internalType":"uint8","name":"attack","type":"uint8"},{"internalType":"uint8","name":"health","type":"uint8"},{"internalType":"enum ExPopulusCards.Ability","name":"ability","type":"uint8"}],"stateMutability":"view","type":"function"},{"inputs":[],"name":"idCoutner","outputs":[{"internalType":"uint256","name":"","type":"uint256"}],"stateMutability":"view","type":"function"},{"inputs":[{"internalType":"address","name":"account","type":"address"},{"internalType":"address","name":"operator","type":"address"}],"name":"isApprovedForAll","outputs":[{"internalType":"bool","name":"","type":"bool"}],"stateMutability":"view","type":"function"},{"inputs":[{"internalType":"address","name":"_to","type":"address"},{"internalType":"uint8","name":"_attack","type":"uint8"},{"internalType":"uint8","name":"_health","type":"uint8"},{"internalType":"enum ExPopulusCards.Ability","name":"_ability","type":"uint8"}],"name":"mintCard","outputs":[],"stateMutability":"nonpayable","type":"function"},{"inputs":[],"name":"owner","outputs":[{"internalType":"address","name":"","type":"address"}],"stateMutability":"view","type":"function"},{"inputs":[],"name":"renounceOwnership","outputs":[],"stateMutability":"nonpayable","type":"function"},{"inputs":[{"internalType":"address","name":"from","type":"address"},{"internalType":"address","name":"to","type":"address"},{"internalType":"uint256[]","name":"ids","type":"uint256[]"},{"internalType":"uint256[]","name":"values","type":"uint256[]"},{"internalType":"bytes","name":"data","type":"bytes"}],"name":"safeBatchTransferFrom","outputs":[],"stateMutability":"nonpayable","type":"function"},{"inputs":[{"internalType":"address","name":"from","type":"address"},{"internalType":"address","name":"to","type":"address"},{"internalType":"uint256","name":"id","type":"uint256"},{"internalType":"uint256","name":"value","type":"uint256"},{"internalType":"bytes","name":"data","type":"bytes"}],"name":"safeTransferFrom","outputs":[],"stateMutability":"nonpayable","type":"function"},{"inputs":[{"internalType":"address","name":"operator","type":"address"},{"internalType":"bool","name":"approved","type":"bool"}],"name":"setApprovalForAll","outputs":[],"stateMutability":"nonpayable","type":"function"},{"inputs":[{"internalType":"bytes4","name":"interfaceId","type":"bytes4"}],"name":"supportsInterface","outputs":[{"internalType":"bool","name":"","type":"bool"}],"stateMutability":"view","type":"function"},{"inputs":[{"internalType":"address","name":"newOwner","type":"address"}],"name":"transferOwnership","outputs":[],"stateMutability":"nonpayable","type":"function"},{"inputs":[{"internalType":"uint256","name":"","type":"uint256"}],"name":"uri","outputs":[{"internalType":"string","name":"","type":"string"}],"stateMutability":"view","type":"function"}],"evm":{"bytecode":{"linkReferences":{},"object":"60806040523480156200001157600080fd5b50604051620031133803806200311383398181016040528101906200003791906200034f565b33816200004a81620000e160201b60201c565b50600073ffffffffffffffffffffffffffffffffffffffff168173ffffffffffffffffffffffffffffffffffffffff1603620000c05760006040517f1e4fbdf7000000000000000000000000000000000000000000000000000000008152600401620000b79190620003e5565b60405180910390fd5b620000d181620000f660201b60201c565b5060016004819055505062000734565b8060029081620000f291906200064d565b5050565b6000600360009054906101000a900473ffffffffffffffffffffffffffffffffffffffff16905081600360006101000a81548173ffffffffffffffffffffffffffffffffffffffff021916908373ffffffffffffffffffffffffffffffffffffffff1602179055508173ffffffffffffffffffffffffffffffffffffffff168173ffffffffffffffffffffffffffffffffffffffff167f8be0079c531659141344cd1fd0a4f28419497f9722a3daafe3b4186f6b6457e060405160405180910390a35050565b6000604051905090565b600080fd5b600080fd5b600080fd5b600080fd5b6000601f19601f8301169050919050565b7f4e487b7100000000000000000000000000000000000000000000000000000000600052604160045260246000fd5b6200022582620001da565b810181811067ffffffffffffffff82111715620002475762000246620001eb565b5b80604052505050565b60006200025c620001bc565b90506200026a82826200021a565b919050565b600067ffffffffffffffff8211156200028d576200028c620001eb565b5b6200029882620001da565b9050602081019050919050565b60005b83811015620002c5578082015181840152602081019050620002a8565b60008484015250505050565b6000620002e8620002e2846200026f565b62000250565b905082815260208101848484011115620003075762000306620001d5565b5b62000314848285620002a5565b509392505050565b600082601f830112620003345762000333620001d0565b5b815162000346848260208601620002d1565b91505092915050565b600060208284031215620003685762000367620001c6565b5b600082015167ffffffffffffffff811115620003895762000388620001cb565b5b62000397848285016200031c565b91505092915050565b600073ffffffffffffffffffffffffffffffffffffffff82169050919050565b6000620003cd82620003a0565b9050919050565b620003df81620003c0565b82525050565b6000602082019050620003fc6000830184620003d4565b92915050565b600081519050919050565b7f4e487b7100000000000000000000000000000000000000000000000000000000600052602260045260246000fd5b600060028204905060018216806200045557607f821691505b6020821081036200046b576200046a6200040d565b5b50919050565b60008190508160005260206000209050919050565b60006020601f8301049050919050565b600082821b905092915050565b600060088302620004d57fffffffffffffffffffffffffffffffffffffffffffffffffffffffffffffffff8262000496565b620004e1868362000496565b95508019841693508086168417925050509392505050565b6000819050919050565b6000819050919050565b60006200052e620005286200052284620004f9565b62000503565b620004f9565b9050919050565b6000819050919050565b6200054a836200050d565b62000562620005598262000535565b848454620004a3565b825550505050565b600090565b620005796200056a565b620005868184846200053f565b505050565b5b81811015620005ae57620005a26000826200056f565b6001810190506200058c565b5050565b601f821115620005fd57620005c78162000471565b620005d28462000486565b81016020851015620005e2578190505b620005fa620005f18562000486565b8301826200058b565b50505b505050565b600082821c905092915050565b6000620006226000198460080262000602565b1980831691505092915050565b60006200063d83836200060f565b9150826002028217905092915050565b620006588262000402565b67ffffffffffffffff811115620006745762000673620001eb565b5b6200068082546200043c565b6200068d828285620005b2565b600060209050601f831160018114620006c55760008415620006b0578287015190505b620006bc85826200062f565b8655506200072c565b601f198416620006d58662000471565b60005b82811015620006ff57848901518255600182019150602085019450602081019050620006d8565b868310156200071f57848901516200071b601f8916826200060f565b8355505b6001600288020188555050505b505050505050565b6129cf80620007446000396000f3fe608060405234801561001057600080fd5b506004361061010a5760003560e01c80638da5cb5b116100a2578063a2fda77111610071578063a2fda771146102cd578063bcb3b244146102fd578063e985e9c514610319578063f242432a14610349578063f2fde38b146103655761010a565b80638da5cb5b146102435780638dc10768146102615780639d74512614610293578063a22cb465146102b15761010a565b80632eb2c2d6116100de5780632eb2c2d6146101bb5780634e1273f4146101d757806360fe995214610207578063715018a6146102395761010a565b8062fdd58e1461010f57806301ffc9a71461013f5780630e89341c1461016f578063299ac4251461019f575b600080fd5b61012960048036038101906101249190611b0d565b610381565b6040516101369190611b5c565b60405180910390f35b61015960048036038101906101549190611bcf565b6103db565b6040516101669190611c17565b60405180910390f35b61018960048036038101906101849190611c32565b6104bd565b6040516101969190611cef565b60405180910390f35b6101b960048036038101906101b49190611d6f565b610551565b005b6101d560048036038101906101d09190611fd3565b6106aa565b005b6101f160048036038101906101ec9190612165565b610752565b6040516101fe919061229b565b60405180910390f35b610221600480360381019061021c9190611c32565b610861565b60405161023093929190612343565b60405180910390f35b61024161098a565b005b61024b61099e565b6040516102589190612389565b60405180910390f35b61027b60048036038101906102769190611c32565b6109c8565b60405161028a93929190612343565b60405180910390f35b61029b610a19565b6040516102a89190611b5c565b60405180910390f35b6102cb60048036038101906102c691906123d0565b610a1f565b005b6102e760048036038101906102e29190612410565b610a35565b6040516102f49190611c17565b60405180910390f35b61031760048036038101906103129190612410565b610a55565b005b610333600480360381019061032e919061243d565b610ab8565b6040516103409190611c17565b60405180910390f35b610363600480360381019061035e919061247d565b610b4c565b005b61037f600480360381019061037a9190612410565b610bf4565b005b600080600083815260200190815260200160002060008473ffffffffffffffffffffffffffffffffffffffff1673ffffffffffffffffffffffffffffffffffffffff16815260200190815260200160002054905092915050565b60007fd9b67a26000000000000000000000000000000000000000000000000000000007bffffffffffffffffffffffffffffffffffffffffffffffffffffffff1916827bffffffffffffffffffffffffffffffffffffffffffffffffffffffff191614806104a657507f0e89341c000000000000000000000000000000000000000000000000000000007bffffffffffffffffffffffffffffffffffffffffffffffffffffffff1916827bffffffffffffffffffffffffffffffffffffffffffffffffffffffff1916145b806104b657506104b582610c7a565b5b9050919050565b6060600280546104cc90612543565b80601f01602080910402602001604051908101604052809291908181526020018280546104f890612543565b80156105455780601f1061051a57610100808354040283529160200191610545565b820191906000526020600020905b81548152906001019060200180831161052857829003601f168201915b50505050509050919050565b610559610ce4565b600381600281111561056e5761056d6122cc565b5b60ff16106105b1576040517f08c379a00000000000000000000000000000000000000000000000000000000081526004016105a8906125e6565b60405180910390fd5b6105cf84600454600160405180602001604052806000815250610d6b565b60405180606001604052808460ff1681526020018360ff1681526020018260028111156105ff576105fe6122cc565b5b81525060056000600454815260200190815260200160002060008201518160000160006101000a81548160ff021916908360ff16021790555060208201518160000160016101000a81548160ff021916908360ff16021790555060408201518160000160026101000a81548160ff02191690836002811115610684576106836122cc565b5b02179055509050506004600081548092919061069f90612635565b919050555050505050565b60006106b4610e04565b90508073ffffffffffffffffffffffffffffffffffffffff168673ffffffffffffffffffffffffffffffffffffffff16141580156106f957506106f78682610ab8565b155b1561073d5780866040517fe237d92200000000000000000000000000000000000000000000000000000000815260040161073492919061267d565b60405180910390fd5b61074a8686868686610e0c565b505050505050565b6060815183511461079e57815183516040517f5b0599910000000000000000000000000000000000000000000000000000000081526004016107959291906126a6565b60405180910390fd5b6000835167ffffffffffffffff8111156107bb576107ba611ddb565b5b6040519080825280602002602001820160405280156107e95781602001602082028036833780820191505090505b50905060005b84518110156108565761082661080e8287610f0490919063ffffffff16565b6108218387610f1890919063ffffffff16565b610381565b828281518110610839576108386126cf565b5b6020026020010181815250508061084f90612635565b90506107ef565b508091505092915050565b60008060003373ffffffffffffffffffffffffffffffffffffffff1661088561099e565b73ffffffffffffffffffffffffffffffffffffffff1614806108f05750600660003373ffffffffffffffffffffffffffffffffffffffff1673ffffffffffffffffffffffffffffffffffffffff16815260200190815260200160002060009054906101000a900460ff165b61092f576040517f08c379a000000000000000000000000000000000000000000000000000000000815260040161092690612770565b60405180910390fd5b60006005600086815260200190815260200160002090508060000160009054906101000a900460ff168160000160019054906101000a900460ff168260000160029054906101000a900460ff16935093509350509193909250565b610992610ce4565b61099c6000610f2c565b565b6000600360009054906101000a900473ffffffffffffffffffffffffffffffffffffffff16905090565b60056020528060005260406000206000915090508060000160009054906101000a900460ff16908060000160019054906101000a900460ff16908060000160029054906101000a900460ff16905083565b60045481565b610a31610a2a610e04565b8383610ff2565b5050565b60066020528060005260406000206000915054906101000a900460ff1681565b610a5d610ce4565b6001600660008373ffffffffffffffffffffffffffffffffffffffff1673ffffffffffffffffffffffffffffffffffffffff16815260200190815260200160002060006101000a81548160ff02191690831515021790555050565b6000600160008473ffffffffffffffffffffffffffffffffffffffff1673ffffffffffffffffffffffffffffffffffffffff16815260200190815260200160002060008373ffffffffffffffffffffffffffffffffffffffff1673ffffffffffffffffffffffffffffffffffffffff16815260200190815260200160002060009054906101000a900460ff16905092915050565b6000610b56610e04565b90508073ffffffffffffffffffffffffffffffffffffffff168673ffffffffffffffffffffffffffffffffffffffff1614158015610b9b5750610b998682610ab8565b155b15610bdf5780866040517fe237d922000000000000000000000000000000000000000000000000000000008152600401610bd692919061267d565b60405180910390fd5b610bec8686868686611162565b505050505050565b610bfc610ce4565b600073ffffffffffffffffffffffffffffffffffffffff168173ffffffffffffffffffffffffffffffffffffffff1603610c6e5760006040517f1e4fbdf7000000000000000000000000000000000000000000000000000000008152600401610c659190612389565b60405180910390fd5b610c7781610f2c565b50565b60007f01ffc9a7000000000000000000000000000000000000000000000000000000007bffffffffffffffffffffffffffffffffffffffffffffffffffffffff1916827bffffffffffffffffffffffffffffffffffffffffffffffffffffffff1916149050919050565b610cec610e04565b73ffffffffffffffffffffffffffffffffffffffff16610d0a61099e565b73ffffffffffffffffffffffffffffffffffffffff1614610d6957610d2d610e04565b6040517f118cdaa7000000000000000000000000000000000000000000000000000000008152600401610d609190612389565b60405180910390fd5b565b600073ffffffffffffffffffffffffffffffffffffffff168473ffffffffffffffffffffffffffffffffffffffff1603610ddd5760006040517f57f447ce000000000000000000000000000000000000000000000000000000008152600401610dd49190612389565b60405180910390fd5b600080610dea858561126d565b91509150610dfc60008784848761129d565b505050505050565b600033905090565b600073ffffffffffffffffffffffffffffffffffffffff168473ffffffffffffffffffffffffffffffffffffffff1603610e7e5760006040517f57f447ce000000000000000000000000000000000000000000000000000000008152600401610e759190612389565b60405180910390fd5b600073ffffffffffffffffffffffffffffffffffffffff168573ffffffffffffffffffffffffffffffffffffffff1603610ef05760006040517f01a83514000000000000000000000000000000000000000000000000000000008152600401610ee79190612389565b60405180910390fd5b610efd858585858561129d565b5050505050565b600060208202602084010151905092915050565b600060208202602084010151905092915050565b6000600360009054906101000a900473ffffffffffffffffffffffffffffffffffffffff16905081600360006101000a81548173ffffffffffffffffffffffffffffffffffffffff021916908373ffffffffffffffffffffffffffffffffffffffff1602179055508173ffffffffffffffffffffffffffffffffffffffff168173ffffffffffffffffffffffffffffffffffffffff167f8be0079c531659141344cd1fd0a4f28419497f9722a3daafe3b4186f6b6457e060405160405180910390a35050565b600073ffffffffffffffffffffffffffffffffffffffff168273ffffffffffffffffffffffffffffffffffffffff16036110645760006040517fced3e10000000000000000000000000000000000000000000000000000000000815260040161105b9190612389565b60405180910390fd5b80600160008573ffffffffffffffffffffffffffffffffffffffff1673ffffffffffffffffffffffffffffffffffffffff16815260200190815260200160002060008473ffffffffffffffffffffffffffffffffffffffff1673ffffffffffffffffffffffffffffffffffffffff16815260200190815260200160002060006101000a81548160ff0219169083151502179055508173ffffffffffffffffffffffffffffffffffffffff168373ffffffffffffffffffffffffffffffffffffffff167f17307eab39ab6107e8899845ad3d59bd9653f200f220920489ca2b5937696c31836040516111559190611c17565b60405180910390a3505050565b600073ffffffffffffffffffffffffffffffffffffffff168473ffffffffffffffffffffffffffffffffffffffff16036111d45760006040517f57f447ce0000000000000000000000000000000000000000000000000000000081526004016111cb9190612389565b60405180910390fd5b600073ffffffffffffffffffffffffffffffffffffffff168573ffffffffffffffffffffffffffffffffffffffff16036112465760006040517f01a8351400000000000000000000000000000000000000000000000000000000815260040161123d9190612389565b60405180910390fd5b600080611253858561126d565b91509150611264878784848761129d565b50505050505050565b60608060405191506001825283602083015260408201905060018152826020820152604081016040529250929050565b6112a98585858561134f565b600073ffffffffffffffffffffffffffffffffffffffff168473ffffffffffffffffffffffffffffffffffffffff16146113485760006112e7610e04565b90506001845103611337576000611308600086610f1890919063ffffffff16565b90506000611320600086610f1890919063ffffffff16565b90506113308389898585896116fd565b5050611346565b6113458187878787876118b1565b5b505b5050505050565b805182511461139957815181516040517f5b0599910000000000000000000000000000000000000000000000000000000081526004016113909291906126a6565b60405180910390fd5b60006113a3610e04565b905060005b83518110156115b85760006113c68286610f1890919063ffffffff16565b905060006113dd8386610f1890919063ffffffff16565b9050600073ffffffffffffffffffffffffffffffffffffffff168873ffffffffffffffffffffffffffffffffffffffff161461150a57600080600084815260200190815260200160002060008a73ffffffffffffffffffffffffffffffffffffffff1673ffffffffffffffffffffffffffffffffffffffff168152602001908152602001600020549050818110156114b257888183856040517f03dee4c50000000000000000000000000000000000000000000000000000000081526004016114a99493929190612790565b60405180910390fd5b81810360008085815260200190815260200160002060008b73ffffffffffffffffffffffffffffffffffffffff1673ffffffffffffffffffffffffffffffffffffffff16815260200190815260200160002081905550505b600073ffffffffffffffffffffffffffffffffffffffff168773ffffffffffffffffffffffffffffffffffffffff16146115a5578060008084815260200190815260200160002060008973ffffffffffffffffffffffffffffffffffffffff1673ffffffffffffffffffffffffffffffffffffffff168152602001908152602001600020600082825461159d91906127d5565b925050819055505b5050806115b190612635565b90506113a8565b5060018351036116775760006115d8600085610f1890919063ffffffff16565b905060006115f0600085610f1890919063ffffffff16565b90508573ffffffffffffffffffffffffffffffffffffffff168773ffffffffffffffffffffffffffffffffffffffff168473ffffffffffffffffffffffffffffffffffffffff167fc3d58168c5ae7397731d063d5bbf3d657854427343f4c083240f7aacaa2d0f6285856040516116689291906126a6565b60405180910390a450506116f6565b8373ffffffffffffffffffffffffffffffffffffffff168573ffffffffffffffffffffffffffffffffffffffff168273ffffffffffffffffffffffffffffffffffffffff167f4a39dc06d4c0dbc64b70af90fd698a233a518aa5d07e595d983b8c0526c8f7fb86866040516116ed929190612809565b60405180910390a45b5050505050565b60008473ffffffffffffffffffffffffffffffffffffffff163b11156118a9578373ffffffffffffffffffffffffffffffffffffffff1663f23a6e6187878686866040518663ffffffff1660e01b815260040161175e959493929190612895565b6020604051808303816000875af192505050801561179a57506040513d601f19601f820116820180604052508101906117979190612904565b60015b61181e573d80600081146117ca576040519150601f19603f3d011682016040523d82523d6000602084013e6117cf565b606091505b50600081510361181657846040517f57f447ce00000000000000000000000000000000000000000000000000000000815260040161180d9190612389565b60405180910390fd5b805181602001fd5b63f23a6e6160e01b7bffffffffffffffffffffffffffffffffffffffffffffffffffffffff1916817bffffffffffffffffffffffffffffffffffffffffffffffffffffffff1916146118a757846040517f57f447ce00000000000000000000000000000000000000000000000000000000815260040161189e9190612389565b60405180910390fd5b505b505050505050565b60008473ffffffffffffffffffffffffffffffffffffffff163b1115611a5d578373ffffffffffffffffffffffffffffffffffffffff1663bc197c8187878686866040518663ffffffff1660e01b8152600401611912959493929190612931565b6020604051808303816000875af192505050801561194e57506040513d601f19601f8201168201806040525081019061194b9190612904565b60015b6119d2573d806000811461197e576040519150601f19603f3d011682016040523d82523d6000602084013e611983565b606091505b5060008151036119ca57846040517f57f447ce0000000000000000000000000000000000000000000000000000000081526004016119c19190612389565b60405180910390fd5b805181602001fd5b63bc197c8160e01b7bffffffffffffffffffffffffffffffffffffffffffffffffffffffff1916817bffffffffffffffffffffffffffffffffffffffffffffffffffffffff191614611a5b57846040517f57f447ce000000000000000000000000000000000000000000000000000000008152600401611a529190612389565b60405180910390fd5b505b505050505050565b6000604051905090565b600080fd5b600080fd5b600073ffffffffffffffffffffffffffffffffffffffff82169050919050565b6000611aa482611a79565b9050919050565b611ab481611a99565b8114611abf57600080fd5b50565b600081359050611ad181611aab565b92915050565b6000819050919050565b611aea81611ad7565b8114611af557600080fd5b50565b600081359050611b0781611ae1565b92915050565b60008060408385031215611b2457611b23611a6f565b5b6000611b3285828601611ac2565b9250506020611b4385828601611af8565b9150509250929050565b611b5681611ad7565b82525050565b6000602082019050611b716000830184611b4d565b92915050565b60007fffffffff0000000000000000000000000000000000000000000000000000000082169050919050565b611bac81611b77565b8114611bb757600080fd5b50565b600081359050611bc981611ba3565b92915050565b600060208284031215611be557611be4611a6f565b5b6000611bf384828501611bba565b91505092915050565b60008115159050919050565b611c1181611bfc565b82525050565b6000602082019050611c2c6000830184611c08565b92915050565b600060208284031215611c4857611c47611a6f565b5b6000611c5684828501611af8565b91505092915050565b600081519050919050565b600082825260208201905092915050565b60005b83811015611c99578082015181840152602081019050611c7e565b60008484015250505050565b6000601f19601f8301169050919050565b6000611cc182611c5f565b611ccb8185611c6a565b9350611cdb818560208601611c7b565b611ce481611ca5565b840191505092915050565b60006020820190508181036000830152611d098184611cb6565b905092915050565b600060ff82169050919050565b611d2781611d11565b8114611d3257600080fd5b50565b600081359050611d4481611d1e565b92915050565b60038110611d5757600080fd5b50565b600081359050611d6981611d4a565b92915050565b60008060008060808587031215611d8957611d88611a6f565b5b6000611d9787828801611ac2565b9450506020611da887828801611d35565b9350506040611db987828801611d35565b9250506060611dca87828801611d5a565b91505092959194509250565b600080fd5b7f4e487b7100000000000000000000000000000000000000000000000000000000600052604160045260246000fd5b611e1382611ca5565b810181811067ffffffffffffffff82111715611e3257611e31611ddb565b5b80604052505050565b6000611e45611a65565b9050611e518282611e0a565b919050565b600067ffffffffffffffff821115611e7157611e70611ddb565b5b602082029050602081019050919050565b600080fd5b6000611e9a611e9584611e56565b611e3b565b90508083825260208201905060208402830185811115611ebd57611ebc611e82565b5b835b81811015611ee65780611ed28882611af8565b845260208401935050602081019050611ebf565b5050509392505050565b600082601f830112611f0557611f04611dd6565b5b8135611f15848260208601611e87565b91505092915050565b600080fd5b600067ffffffffffffffff821115611f3e57611f3d611ddb565b5b611f4782611ca5565b9050602081019050919050565b82818337600083830152505050565b6000611f76611f7184611f23565b611e3b565b905082815260208101848484011115611f9257611f91611f1e565b5b611f9d848285611f54565b509392505050565b600082601f830112611fba57611fb9611dd6565b5b8135611fca848260208601611f63565b91505092915050565b600080600080600060a08688031215611fef57611fee611a6f565b5b6000611ffd88828901611ac2565b955050602061200e88828901611ac2565b945050604086013567ffffffffffffffff81111561202f5761202e611a74565b5b61203b88828901611ef0565b935050606086013567ffffffffffffffff81111561205c5761205b611a74565b5b61206888828901611ef0565b925050608086013567ffffffffffffffff81111561208957612088611a74565b5b61209588828901611fa5565b9150509295509295909350565b600067ffffffffffffffff8211156120bd576120bc611ddb565b5b602082029050602081019050919050565b60006120e16120dc846120a2565b611e3b565b9050808382526020820190506020840283018581111561210457612103611e82565b5b835b8181101561212d57806121198882611ac2565b845260208401935050602081019050612106565b5050509392505050565b600082601f83011261214c5761214b611dd6565b5b813561215c8482602086016120ce565b91505092915050565b6000806040838503121561217c5761217b611a6f565b5b600083013567ffffffffffffffff81111561219a57612199611a74565b5b6121a685828601612137565b925050602083013567ffffffffffffffff8111156121c7576121c6611a74565b5b6121d385828601611ef0565b9150509250929050565b600081519050919050565b600082825260208201905092915050565b6000819050602082019050919050565b61221281611ad7565b82525050565b60006122248383612209565b60208301905092915050565b6000602082019050919050565b6000612248826121dd565b61225281856121e8565b935061225d836121f9565b8060005b8381101561228e5781516122758882612218565b975061228083612230565b925050600181019050612261565b5085935050505092915050565b600060208201905081810360008301526122b5818461223d565b905092915050565b6122c681611d11565b82525050565b7f4e487b7100000000000000000000000000000000000000000000000000000000600052602160045260246000fd5b6003811061230c5761230b6122cc565b5b50565b600081905061231d826122fb565b919050565b600061232d8261230f565b9050919050565b61233d81612322565b82525050565b600060608201905061235860008301866122bd565b61236560208301856122bd565b6123726040830184612334565b949350505050565b61238381611a99565b82525050565b600060208201905061239e600083018461237a565b92915050565b6123ad81611bfc565b81146123b857600080fd5b50565b6000813590506123ca816123a4565b92915050565b600080604083850312156123e7576123e6611a6f565b5b60006123f585828601611ac2565b9250506020612406858286016123bb565b9150509250929050565b60006020828403121561242657612425611a6f565b5b600061243484828501611ac2565b91505092915050565b6000806040838503121561245457612453611a6f565b5b600061246285828601611ac2565b925050602061247385828601611ac2565b9150509250929050565b600080600080600060a0868803121561249957612498611a6f565b5b60006124a788828901611ac2565b95505060206124b888828901611ac2565b94505060406124c988828901611af8565b93505060606124da88828901611af8565b925050608086013567ffffffffffffffff8111156124fb576124fa611a74565b5b61250788828901611fa5565b9150509295509295909350565b7f4e487b7100000000000000000000000000000000000000000000000000000000600052602260045260246000fd5b6000600282049050600182168061255b57607f821691505b60208210810361256e5761256d612514565b5b50919050565b7f4578506f70756c757343617264733a204f6e6c79204162696c69747920302c3160008201527f20616e64203220616c6c6f7765642e0000000000000000000000000000000000602082015250565b60006125d0602f83611c6a565b91506125db82612574565b604082019050919050565b600060208201905081810360008301526125ff816125c3565b9050919050565b7f4e487b7100000000000000000000000000000000000000000000000000000000600052601160045260246000fd5b600061264082611ad7565b91507fffffffffffffffffffffffffffffffffffffffffffffffffffffffffffffffff820361267257612671612606565b5b600182019050919050565b6000604082019050612692600083018561237a565b61269f602083018461237a565b9392505050565b60006040820190506126bb6000830185611b4d565b6126c86020830184611b4d565b9392505050565b7f4e487b7100000000000000000000000000000000000000000000000000000000600052603260045260246000fd5b7f4578506f70756c757343617264733a20596f7520646f6e27742068617665206160008201527f6363657373206f662074686520636172642e0000000000000000000000000000602082015250565b600061275a603283611c6a565b9150612765826126fe565b604082019050919050565b600060208201905081810360008301526127898161274d565b9050919050565b60006080820190506127a5600083018761237a565b6127b26020830186611b4d565b6127bf6040830185611b4d565b6127cc6060830184611b4d565b95945050505050565b60006127e082611ad7565b91506127eb83611ad7565b925082820190508082111561280357612802612606565b5b92915050565b60006040820190508181036000830152612823818561223d565b90508181036020830152612837818461223d565b90509392505050565b600081519050919050565b600082825260208201905092915050565b600061286782612840565b612871818561284b565b9350612881818560208601611c7b565b61288a81611ca5565b840191505092915050565b600060a0820190506128aa600083018861237a565b6128b7602083018761237a565b6128c46040830186611b4d565b6128d16060830185611b4d565b81810360808301526128e3818461285c565b90509695505050505050565b6000815190506128fe81611ba3565b92915050565b60006020828403121561291a57612919611a6f565b5b6000612928848285016128ef565b91505092915050565b600060a082019050612946600083018861237a565b612953602083018761237a565b8181036040830152612965818661223d565b90508181036060830152612979818561223d565b9050818103608083015261298d818461285c565b9050969550505050505056fea264697066735822122067c0b395594ae5fd3e979b770d6d6807ddbaee034f4be048a3e111df49ad405664736f6c63430008140033","opcodes":"PUSH1 0x80 PUSH1 0x40 MSTORE CALLVALUE DUP1 ISZERO PUSH3 0x11 JUMPI PUSH1 0x0 DUP1 REVERT JUMPDEST POP PUSH1 0x40 MLOAD PUSH3 0x3113 CODESIZE SUB DUP1 PUSH3 0x3113 DUP4 CODECOPY DUP2 DUP2 ADD PUSH1 0x40 MSTORE DUP2 ADD SWAP1 PUSH3 0x37 SWAP2 SWAP1 PUSH3 0x34F JUMP JUMPDEST CALLER DUP2 PUSH3 0x4A DUP2 PUSH3 0xE1 PUSH1 0x20 SHL PUSH1 0x20 SHR JUMP JUMPDEST POP PUSH1 0x0 PUSH20 0xFFFFFFFFFFFFFFFFFFFFFFFFFFFFFFFFFFFFFFFF AND DUP2 PUSH20 0xFFFFFFFFFFFFFFFFFFFFFFFFFFFFFFFFFFFFFFFF AND SUB PUSH3 0xC0 JUMPI PUSH1 0x0 PUSH1 0x40 MLOAD PUSH32 0x1E4FBDF700000000000000000000000000000000000000000000000000000000 DUP2 MSTORE PUSH1 0x4 ADD PUSH3 0xB7 SWAP2 SWAP1 PUSH3 0x3E5 JUMP JUMPDEST PUSH1 0x40 MLOAD DUP1 SWAP2 SUB SWAP1 REVERT JUMPDEST PUSH3 0xD1 DUP2 PUSH3 0xF6 PUSH1 0x20 SHL PUSH1 0x20 SHR JUMP JUMPDEST POP PUSH1 0x1 PUSH1 0x4 DUP2 SWAP1 SSTORE POP POP PUSH3 0x734 JUMP JUMPDEST DUP1 PUSH1 0x2 SWAP1 DUP2 PUSH3 0xF2 SWAP2 SWAP1 PUSH3 0x64D JUMP JUMPDEST POP POP JUMP JUMPDEST PUSH1 0x0 PUSH1 0x3 PUSH1 0x0 SWAP1 SLOAD SWAP1 PUSH2 0x100 EXP SWAP1 DIV PUSH20 0xFFFFFFFFFFFFFFFFFFFFFFFFFFFFFFFFFFFFFFFF AND SWAP1 POP DUP2 PUSH1 0x3 PUSH1 0x0 PUSH2 0x100 EXP DUP2 SLOAD DUP2 PUSH20 0xFFFFFFFFFFFFFFFFFFFFFFFFFFFFFFFFFFFFFFFF MUL NOT AND SWAP1 DUP4 PUSH20 0xFFFFFFFFFFFFFFFFFFFFFFFFFFFFFFFFFFFFFFFF AND MUL OR SWAP1 SSTORE POP DUP2 PUSH20 0xFFFFFFFFFFFFFFFFFFFFFFFFFFFFFFFFFFFFFFFF AND DUP2 PUSH20 0xFFFFFFFFFFFFFFFFFFFFFFFFFFFFFFFFFFFFFFFF AND PUSH32 0x8BE0079C531659141344CD1FD0A4F28419497F9722A3DAAFE3B4186F6B6457E0 PUSH1 0x40 MLOAD PUSH1 0x40 MLOAD DUP1 SWAP2 SUB SWAP1 LOG3 POP POP JUMP JUMPDEST PUSH1 0x0 PUSH1 0x40 MLOAD SWAP1 POP SWAP1 JUMP JUMPDEST PUSH1 0x0 DUP1 REVERT JUMPDEST PUSH1 0x0 DUP1 REVERT JUMPDEST PUSH1 0x0 DUP1 REVERT JUMPDEST PUSH1 0x0 DUP1 REVERT JUMPDEST PUSH1 0x0 PUSH1 0x1F NOT PUSH1 0x1F DUP4 ADD AND SWAP1 POP SWAP2 SWAP1 POP JUMP JUMPDEST PUSH32 0x4E487B7100000000000000000000000000000000000000000000000000000000 PUSH1 0x0 MSTORE PUSH1 0x41 PUSH1 0x4 MSTORE PUSH1 0x24 PUSH1 0x0 REVERT JUMPDEST PUSH3 0x225 DUP3 PUSH3 0x1DA JUMP JUMPDEST DUP2 ADD DUP2 DUP2 LT PUSH8 0xFFFFFFFFFFFFFFFF DUP3 GT OR ISZERO PUSH3 0x247 JUMPI PUSH3 0x246 PUSH3 0x1EB JUMP JUMPDEST JUMPDEST DUP1 PUSH1 0x40 MSTORE POP POP POP JUMP JUMPDEST PUSH1 0x0 PUSH3 0x25C PUSH3 0x1BC JUMP JUMPDEST SWAP1 POP PUSH3 0x26A DUP3 DUP3 PUSH3 0x21A JUMP JUMPDEST SWAP2 SWAP1 POP JUMP JUMPDEST PUSH1 0x0 PUSH8 0xFFFFFFFFFFFFFFFF DUP3 GT ISZERO PUSH3 0x28D JUMPI PUSH3 0x28C PUSH3 0x1EB JUMP JUMPDEST JUMPDEST PUSH3 0x298 DUP3 PUSH3 0x1DA JUMP JUMPDEST SWAP1 POP PUSH1 0x20 DUP2 ADD SWAP1 POP SWAP2 SWAP1 POP JUMP JUMPDEST PUSH1 0x0 JUMPDEST DUP4 DUP2 LT ISZERO PUSH3 0x2C5 JUMPI DUP1 DUP3 ADD MLOAD DUP2 DUP5 ADD MSTORE PUSH1 0x20 DUP2 ADD SWAP1 POP PUSH3 0x2A8 JUMP JUMPDEST PUSH1 0x0 DUP5 DUP5 ADD MSTORE POP POP POP POP JUMP JUMPDEST PUSH1 0x0 PUSH3 0x2E8 PUSH3 0x2E2 DUP5 PUSH3 0x26F JUMP JUMPDEST PUSH3 0x250 JUMP JUMPDEST SWAP1 POP DUP3 DUP2 MSTORE PUSH1 0x20 DUP2 ADD DUP5 DUP5 DUP5 ADD GT ISZERO PUSH3 0x307 JUMPI PUSH3 0x306 PUSH3 0x1D5 JUMP JUMPDEST JUMPDEST PUSH3 0x314 DUP5 DUP3 DUP6 PUSH3 0x2A5 JUMP JUMPDEST POP SWAP4 SWAP3 POP POP POP JUMP JUMPDEST PUSH1 0x0 DUP3 PUSH1 0x1F DUP4 ADD SLT PUSH3 0x334 JUMPI PUSH3 0x333 PUSH3 0x1D0 JUMP JUMPDEST JUMPDEST DUP2 MLOAD PUSH3 0x346 DUP5 DUP3 PUSH1 0x20 DUP7 ADD PUSH3 0x2D1 JUMP JUMPDEST SWAP2 POP POP SWAP3 SWAP2 POP POP JUMP JUMPDEST PUSH1 0x0 PUSH1 0x20 DUP3 DUP5 SUB SLT ISZERO PUSH3 0x368 JUMPI PUSH3 0x367 PUSH3 0x1C6 JUMP JUMPDEST JUMPDEST PUSH1 0x0 DUP3 ADD MLOAD PUSH8 0xFFFFFFFFFFFFFFFF DUP2 GT ISZERO PUSH3 0x389 JUMPI PUSH3 0x388 PUSH3 0x1CB JUMP JUMPDEST JUMPDEST PUSH3 0x397 DUP5 DUP3 DUP6 ADD PUSH3 0x31C JUMP JUMPDEST SWAP2 POP POP SWAP3 SWAP2 POP POP JUMP JUMPDEST PUSH1 0x0 PUSH20 0xFFFFFFFFFFFFFFFFFFFFFFFFFFFFFFFFFFFFFFFF DUP3 AND SWAP1 POP SWAP2 SWAP1 POP JUMP JUMPDEST PUSH1 0x0 PUSH3 0x3CD DUP3 PUSH3 0x3A0 JUMP JUMPDEST SWAP1 POP SWAP2 SWAP1 POP JUMP JUMPDEST PUSH3 0x3DF DUP2 PUSH3 0x3C0 JUMP JUMPDEST DUP3 MSTORE POP POP JUMP JUMPDEST PUSH1 0x0 PUSH1 0x20 DUP3 ADD SWAP1 POP PUSH3 0x3FC PUSH1 0x0 DUP4 ADD DUP5 PUSH3 0x3D4 JUMP JUMPDEST SWAP3 SWAP2 POP POP JUMP JUMPDEST PUSH1 0x0 DUP2 MLOAD SWAP1 POP SWAP2 SWAP1 POP JUMP JUMPDEST PUSH32 0x4E487B7100000000000000000000000000000000000000000000000000000000 PUSH1 0x0 MSTORE PUSH1 0x22 PUSH1 0x4 MSTORE PUSH1 0x24 PUSH1 0x0 REVERT JUMPDEST PUSH1 0x0 PUSH1 0x2 DUP3 DIV SWAP1 POP PUSH1 0x1 DUP3 AND DUP1 PUSH3 0x455 JUMPI PUSH1 0x7F DUP3 AND SWAP2 POP JUMPDEST PUSH1 0x20 DUP3 LT DUP2 SUB PUSH3 0x46B JUMPI PUSH3 0x46A PUSH3 0x40D JUMP JUMPDEST JUMPDEST POP SWAP2 SWAP1 POP JUMP JUMPDEST PUSH1 0x0 DUP2 SWAP1 POP DUP2 PUSH1 0x0 MSTORE PUSH1 0x20 PUSH1 0x0 KECCAK256 SWAP1 POP SWAP2 SWAP1 POP JUMP JUMPDEST PUSH1 0x0 PUSH1 0x20 PUSH1 0x1F DUP4 ADD DIV SWAP1 POP SWAP2 SWAP1 POP JUMP JUMPDEST PUSH1 0x0 DUP3 DUP3 SHL SWAP1 POP SWAP3 SWAP2 POP POP JUMP JUMPDEST PUSH1 0x0 PUSH1 0x8 DUP4 MUL PUSH3 0x4D5 PUSH32 0xFFFFFFFFFFFFFFFFFFFFFFFFFFFFFFFFFFFFFFFFFFFFFFFFFFFFFFFFFFFFFFFF DUP3 PUSH3 0x496 JUMP JUMPDEST PUSH3 0x4E1 DUP7 DUP4 PUSH3 0x496 JUMP JUMPDEST SWAP6 POP DUP1 NOT DUP5 AND SWAP4 POP DUP1 DUP7 AND DUP5 OR SWAP3 POP POP POP SWAP4 SWAP3 POP POP POP JUMP JUMPDEST PUSH1 0x0 DUP2 SWAP1 POP SWAP2 SWAP1 POP JUMP JUMPDEST PUSH1 0x0 DUP2 SWAP1 POP SWAP2 SWAP1 POP JUMP JUMPDEST PUSH1 0x0 PUSH3 0x52E PUSH3 0x528 PUSH3 0x522 DUP5 PUSH3 0x4F9 JUMP JUMPDEST PUSH3 0x503 JUMP JUMPDEST PUSH3 0x4F9 JUMP JUMPDEST SWAP1 POP SWAP2 SWAP1 POP JUMP JUMPDEST PUSH1 0x0 DUP2 SWAP1 POP SWAP2 SWAP1 POP JUMP JUMPDEST PUSH3 0x54A DUP4 PUSH3 0x50D JUMP JUMPDEST PUSH3 0x562 PUSH3 0x559 DUP3 PUSH3 0x535 JUMP JUMPDEST DUP5 DUP5 SLOAD PUSH3 0x4A3 JUMP JUMPDEST DUP3 SSTORE POP POP POP POP JUMP JUMPDEST PUSH1 0x0 SWAP1 JUMP JUMPDEST PUSH3 0x579 PUSH3 0x56A JUMP JUMPDEST PUSH3 0x586 DUP2 DUP5 DUP5 PUSH3 0x53F JUMP JUMPDEST POP POP POP JUMP JUMPDEST JUMPDEST DUP2 DUP2 LT ISZERO PUSH3 0x5AE JUMPI PUSH3 0x5A2 PUSH1 0x0 DUP3 PUSH3 0x56F JUMP JUMPDEST PUSH1 0x1 DUP2 ADD SWAP1 POP PUSH3 0x58C JUMP JUMPDEST POP POP JUMP JUMPDEST PUSH1 0x1F DUP3 GT ISZERO PUSH3 0x5FD JUMPI PUSH3 0x5C7 DUP2 PUSH3 0x471 JUMP JUMPDEST PUSH3 0x5D2 DUP5 PUSH3 0x486 JUMP JUMPDEST DUP2 ADD PUSH1 0x20 DUP6 LT ISZERO PUSH3 0x5E2 JUMPI DUP2 SWAP1 POP JUMPDEST PUSH3 0x5FA PUSH3 0x5F1 DUP6 PUSH3 0x486 JUMP JUMPDEST DUP4 ADD DUP3 PUSH3 0x58B JUMP JUMPDEST POP POP JUMPDEST POP POP POP JUMP JUMPDEST PUSH1 0x0 DUP3 DUP3 SHR SWAP1 POP SWAP3 SWAP2 POP POP JUMP JUMPDEST PUSH1 0x0 PUSH3 0x622 PUSH1 0x0 NOT DUP5 PUSH1 0x8 MUL PUSH3 0x602 JUMP JUMPDEST NOT DUP1 DUP4 AND SWAP2 POP POP SWAP3 SWAP2 POP POP JUMP JUMPDEST PUSH1 0x0 PUSH3 0x63D DUP4 DUP4 PUSH3 0x60F JUMP JUMPDEST SWAP2 POP DUP3 PUSH1 0x2 MUL DUP3 OR SWAP1 POP SWAP3 SWAP2 POP POP JUMP JUMPDEST PUSH3 0x658 DUP3 PUSH3 0x402 JUMP JUMPDEST PUSH8 0xFFFFFFFFFFFFFFFF DUP2 GT ISZERO PUSH3 0x674 JUMPI PUSH3 0x673 PUSH3 0x1EB JUMP JUMPDEST JUMPDEST PUSH3 0x680 DUP3 SLOAD PUSH3 0x43C JUMP JUMPDEST PUSH3 0x68D DUP3 DUP3 DUP6 PUSH3 0x5B2 JUMP JUMPDEST PUSH1 0x0 PUSH1 0x20 SWAP1 POP PUSH1 0x1F DUP4 GT PUSH1 0x1 DUP2 EQ PUSH3 0x6C5 JUMPI PUSH1 0x0 DUP5 ISZERO PUSH3 0x6B0 JUMPI DUP3 DUP8 ADD MLOAD SWAP1 POP JUMPDEST PUSH3 0x6BC DUP6 DUP3 PUSH3 0x62F JUMP JUMPDEST DUP7 SSTORE POP PUSH3 0x72C JUMP JUMPDEST PUSH1 0x1F NOT DUP5 AND PUSH3 0x6D5 DUP7 PUSH3 0x471 JUMP JUMPDEST PUSH1 0x0 JUMPDEST DUP3 DUP2 LT ISZERO PUSH3 0x6FF JUMPI DUP5 DUP10 ADD MLOAD DUP3 SSTORE PUSH1 0x1 DUP3 ADD SWAP2 POP PUSH1 0x20 DUP6 ADD SWAP5 POP PUSH1 0x20 DUP2 ADD SWAP1 POP PUSH3 0x6D8 JUMP JUMPDEST DUP7 DUP4 LT ISZERO PUSH3 0x71F JUMPI DUP5 DUP10 ADD MLOAD PUSH3 0x71B PUSH1 0x1F DUP10 AND DUP3 PUSH3 0x60F JUMP JUMPDEST DUP4 SSTORE POP JUMPDEST PUSH1 0x1 PUSH1 0x2 DUP9 MUL ADD DUP9 SSTORE POP POP POP JUMPDEST POP POP POP POP POP POP JUMP JUMPDEST PUSH2 0x29CF DUP1 PUSH3 0x744 PUSH1 0x0 CODECOPY PUSH1 0x0 RETURN INVALID PUSH1 0x80 PUSH1 0x40 MSTORE CALLVALUE DUP1 ISZERO PUSH2 0x10 JUMPI PUSH1 0x0 DUP1 REVERT JUMPDEST POP PUSH1 0x4 CALLDATASIZE LT PUSH2 0x10A JUMPI PUSH1 0x0 CALLDATALOAD PUSH1 0xE0 SHR DUP1 PUSH4 0x8DA5CB5B GT PUSH2 0xA2 JUMPI DUP1 PUSH4 0xA2FDA771 GT PUSH2 0x71 JUMPI DUP1 PUSH4 0xA2FDA771 EQ PUSH2 0x2CD JUMPI DUP1 PUSH4 0xBCB3B244 EQ PUSH2 0x2FD JUMPI DUP1 PUSH4 0xE985E9C5 EQ PUSH2 0x319 JUMPI DUP1 PUSH4 0xF242432A EQ PUSH2 0x349 JUMPI DUP1 PUSH4 0xF2FDE38B EQ PUSH2 0x365 JUMPI PUSH2 0x10A JUMP JUMPDEST DUP1 PUSH4 0x8DA5CB5B EQ PUSH2 0x243 JUMPI DUP1 PUSH4 0x8DC10768 EQ PUSH2 0x261 JUMPI DUP1 PUSH4 0x9D745126 EQ PUSH2 0x293 JUMPI DUP1 PUSH4 0xA22CB465 EQ PUSH2 0x2B1 JUMPI PUSH2 0x10A JUMP JUMPDEST DUP1 PUSH4 0x2EB2C2D6 GT PUSH2 0xDE JUMPI DUP1 PUSH4 0x2EB2C2D6 EQ PUSH2 0x1BB JUMPI DUP1 PUSH4 0x4E1273F4 EQ PUSH2 0x1D7 JUMPI DUP1 PUSH4 0x60FE9952 EQ PUSH2 0x207 JUMPI DUP1 PUSH4 0x715018A6 EQ PUSH2 0x239 JUMPI PUSH2 0x10A JUMP JUMPDEST DUP1 PUSH3 0xFDD58E EQ PUSH2 0x10F JUMPI DUP1 PUSH4 0x1FFC9A7 EQ PUSH2 0x13F JUMPI DUP1 PUSH4 0xE89341C EQ PUSH2 0x16F JUMPI DUP1 PUSH4 0x299AC425 EQ PUSH2 0x19F JUMPI JUMPDEST PUSH1 0x0 DUP1 REVERT JUMPDEST PUSH2 0x129 PUSH1 0x4 DUP1 CALLDATASIZE SUB DUP2 ADD SWAP1 PUSH2 0x124 SWAP2 SWAP1 PUSH2 0x1B0D JUMP JUMPDEST PUSH2 0x381 JUMP JUMPDEST PUSH1 0x40 MLOAD PUSH2 0x136 SWAP2 SWAP1 PUSH2 0x1B5C JUMP JUMPDEST PUSH1 0x40 MLOAD DUP1 SWAP2 SUB SWAP1 RETURN JUMPDEST PUSH2 0x159 PUSH1 0x4 DUP1 CALLDATASIZE SUB DUP2 ADD SWAP1 PUSH2 0x154 SWAP2 SWAP1 PUSH2 0x1BCF JUMP JUMPDEST PUSH2 0x3DB JUMP JUMPDEST PUSH1 0x40 MLOAD PUSH2 0x166 SWAP2 SWAP1 PUSH2 0x1C17 JUMP JUMPDEST PUSH1 0x40 MLOAD DUP1 SWAP2 SUB SWAP1 RETURN JUMPDEST PUSH2 0x189 PUSH1 0x4 DUP1 CALLDATASIZE SUB DUP2 ADD SWAP1 PUSH2 0x184 SWAP2 SWAP1 PUSH2 0x1C32 JUMP JUMPDEST PUSH2 0x4BD JUMP JUMPDEST PUSH1 0x40 MLOAD PUSH2 0x196 SWAP2 SWAP1 PUSH2 0x1CEF JUMP JUMPDEST PUSH1 0x40 MLOAD DUP1 SWAP2 SUB SWAP1 RETURN JUMPDEST PUSH2 0x1B9 PUSH1 0x4 DUP1 CALLDATASIZE SUB DUP2 ADD SWAP1 PUSH2 0x1B4 SWAP2 SWAP1 PUSH2 0x1D6F JUMP JUMPDEST PUSH2 0x551 JUMP JUMPDEST STOP JUMPDEST PUSH2 0x1D5 PUSH1 0x4 DUP1 CALLDATASIZE SUB DUP2 ADD SWAP1 PUSH2 0x1D0 SWAP2 SWAP1 PUSH2 0x1FD3 JUMP JUMPDEST PUSH2 0x6AA JUMP JUMPDEST STOP JUMPDEST PUSH2 0x1F1 PUSH1 0x4 DUP1 CALLDATASIZE SUB DUP2 ADD SWAP1 PUSH2 0x1EC SWAP2 SWAP1 PUSH2 0x2165 JUMP JUMPDEST PUSH2 0x752 JUMP JUMPDEST PUSH1 0x40 MLOAD PUSH2 0x1FE SWAP2 SWAP1 PUSH2 0x229B JUMP JUMPDEST PUSH1 0x40 MLOAD DUP1 SWAP2 SUB SWAP1 RETURN JUMPDEST PUSH2 0x221 PUSH1 0x4 DUP1 CALLDATASIZE SUB DUP2 ADD SWAP1 PUSH2 0x21C SWAP2 SWAP1 PUSH2 0x1C32 JUMP JUMPDEST PUSH2 0x861 JUMP JUMPDEST PUSH1 0x40 MLOAD PUSH2 0x230 SWAP4 SWAP3 SWAP2 SWAP1 PUSH2 0x2343 JUMP JUMPDEST PUSH1 0x40 MLOAD DUP1 SWAP2 SUB SWAP1 RETURN JUMPDEST PUSH2 0x241 PUSH2 0x98A JUMP JUMPDEST STOP JUMPDEST PUSH2 0x24B PUSH2 0x99E JUMP JUMPDEST PUSH1 0x40 MLOAD PUSH2 0x258 SWAP2 SWAP1 PUSH2 0x2389 JUMP JUMPDEST PUSH1 0x40 MLOAD DUP1 SWAP2 SUB SWAP1 RETURN JUMPDEST PUSH2 0x27B PUSH1 0x4 DUP1 CALLDATASIZE SUB DUP2 ADD SWAP1 PUSH2 0x276 SWAP2 SWAP1 PUSH2 0x1C32 JUMP JUMPDEST PUSH2 0x9C8 JUMP JUMPDEST PUSH1 0x40 MLOAD PUSH2 0x28A SWAP4 SWAP3 SWAP2 SWAP1 PUSH2 0x2343 JUMP JUMPDEST PUSH1 0x40 MLOAD DUP1 SWAP2 SUB SWAP1 RETURN JUMPDEST PUSH2 0x29B PUSH2 0xA19 JUMP JUMPDEST PUSH1 0x40 MLOAD PUSH2 0x2A8 SWAP2 SWAP1 PUSH2 0x1B5C JUMP JUMPDEST PUSH1 0x40 MLOAD DUP1 SWAP2 SUB SWAP1 RETURN JUMPDEST PUSH2 0x2CB PUSH1 0x4 DUP1 CALLDATASIZE SUB DUP2 ADD SWAP1 PUSH2 0x2C6 SWAP2 SWAP1 PUSH2 0x23D0 JUMP JUMPDEST PUSH2 0xA1F JUMP JUMPDEST STOP JUMPDEST PUSH2 0x2E7 PUSH1 0x4 DUP1 CALLDATASIZE SUB DUP2 ADD SWAP1 PUSH2 0x2E2 SWAP2 SWAP1 PUSH2 0x2410 JUMP JUMPDEST PUSH2 0xA35 JUMP JUMPDEST PUSH1 0x40 MLOAD PUSH2 0x2F4 SWAP2 SWAP1 PUSH2 0x1C17 JUMP JUMPDEST PUSH1 0x40 MLOAD DUP1 SWAP2 SUB SWAP1 RETURN JUMPDEST PUSH2 0x317 PUSH1 0x4 DUP1 CALLDATASIZE SUB DUP2 ADD SWAP1 PUSH2 0x312 SWAP2 SWAP1 PUSH2 0x2410 JUMP JUMPDEST PUSH2 0xA55 JUMP JUMPDEST STOP JUMPDEST PUSH2 0x333 PUSH1 0x4 DUP1 CALLDATASIZE SUB DUP2 ADD SWAP1 PUSH2 0x32E SWAP2 SWAP1 PUSH2 0x243D JUMP JUMPDEST PUSH2 0xAB8 JUMP JUMPDEST PUSH1 0x40 MLOAD PUSH2 0x340 SWAP2 SWAP1 PUSH2 0x1C17 JUMP JUMPDEST PUSH1 0x40 MLOAD DUP1 SWAP2 SUB SWAP1 RETURN JUMPDEST PUSH2 0x363 PUSH1 0x4 DUP1 CALLDATASIZE SUB DUP2 ADD SWAP1 PUSH2 0x35E SWAP2 SWAP1 PUSH2 0x247D JUMP JUMPDEST PUSH2 0xB4C JUMP JUMPDEST STOP JUMPDEST PUSH2 0x37F PUSH1 0x4 DUP1 CALLDATASIZE SUB DUP2 ADD SWAP1 PUSH2 0x37A SWAP2 SWAP1 PUSH2 0x2410 JUMP JUMPDEST PUSH2 0xBF4 JUMP JUMPDEST STOP JUMPDEST PUSH1 0x0 DUP1 PUSH1 0x0 DUP4 DUP2 MSTORE PUSH1 0x20 ADD SWAP1 DUP2 MSTORE PUSH1 0x20 ADD PUSH1 0x0 KECCAK256 PUSH1 0x0 DUP5 PUSH20 0xFFFFFFFFFFFFFFFFFFFFFFFFFFFFFFFFFFFFFFFF AND PUSH20 0xFFFFFFFFFFFFFFFFFFFFFFFFFFFFFFFFFFFFFFFF AND DUP2 MSTORE PUSH1 0x20 ADD SWAP1 DUP2 MSTORE PUSH1 0x20 ADD PUSH1 0x0 KECCAK256 SLOAD SWAP1 POP SWAP3 SWAP2 POP POP JUMP JUMPDEST PUSH1 0x0 PUSH32 0xD9B67A2600000000000000000000000000000000000000000000000000000000 PUSH28 0xFFFFFFFFFFFFFFFFFFFFFFFFFFFFFFFFFFFFFFFFFFFFFFFFFFFFFFFF NOT AND DUP3 PUSH28 0xFFFFFFFFFFFFFFFFFFFFFFFFFFFFFFFFFFFFFFFFFFFFFFFFFFFFFFFF NOT AND EQ DUP1 PUSH2 0x4A6 JUMPI POP PUSH32 0xE89341C00000000000000000000000000000000000000000000000000000000 PUSH28 0xFFFFFFFFFFFFFFFFFFFFFFFFFFFFFFFFFFFFFFFFFFFFFFFFFFFFFFFF NOT AND DUP3 PUSH28 0xFFFFFFFFFFFFFFFFFFFFFFFFFFFFFFFFFFFFFFFFFFFFFFFFFFFFFFFF NOT AND EQ JUMPDEST DUP1 PUSH2 0x4B6 JUMPI POP PUSH2 0x4B5 DUP3 PUSH2 0xC7A JUMP JUMPDEST JUMPDEST SWAP1 POP SWAP2 SWAP1 POP JUMP JUMPDEST PUSH1 0x60 PUSH1 0x2 DUP1 SLOAD PUSH2 0x4CC SWAP1 PUSH2 0x2543 JUMP JUMPDEST DUP1 PUSH1 0x1F ADD PUSH1 0x20 DUP1 SWAP2 DIV MUL PUSH1 0x20 ADD PUSH1 0x40 MLOAD SWAP1 DUP2 ADD PUSH1 0x40 MSTORE DUP1 SWAP3 SWAP2 SWAP1 DUP2 DUP2 MSTORE PUSH1 0x20 ADD DUP3 DUP1 SLOAD PUSH2 0x4F8 SWAP1 PUSH2 0x2543 JUMP JUMPDEST DUP1 ISZERO PUSH2 0x545 JUMPI DUP1 PUSH1 0x1F LT PUSH2 0x51A JUMPI PUSH2 0x100 DUP1 DUP4 SLOAD DIV MUL DUP4 MSTORE SWAP2 PUSH1 0x20 ADD SWAP2 PUSH2 0x545 JUMP JUMPDEST DUP3 ADD SWAP2 SWAP1 PUSH1 0x0 MSTORE PUSH1 0x20 PUSH1 0x0 KECCAK256 SWAP1 JUMPDEST DUP2 SLOAD DUP2 MSTORE SWAP1 PUSH1 0x1 ADD SWAP1 PUSH1 0x20 ADD DUP1 DUP4 GT PUSH2 0x528 JUMPI DUP3 SWAP1 SUB PUSH1 0x1F AND DUP3 ADD SWAP2 JUMPDEST POP POP POP POP POP SWAP1 POP SWAP2 SWAP1 POP JUMP JUMPDEST PUSH2 0x559 PUSH2 0xCE4 JUMP JUMPDEST PUSH1 0x3 DUP2 PUSH1 0x2 DUP2 GT ISZERO PUSH2 0x56E JUMPI PUSH2 0x56D PUSH2 0x22CC JUMP JUMPDEST JUMPDEST PUSH1 0xFF AND LT PUSH2 0x5B1 JUMPI PUSH1 0x40 MLOAD PUSH32 0x8C379A000000000000000000000000000000000000000000000000000000000 DUP2 MSTORE PUSH1 0x4 ADD PUSH2 0x5A8 SWAP1 PUSH2 0x25E6 JUMP JUMPDEST PUSH1 0x40 MLOAD DUP1 SWAP2 SUB SWAP1 REVERT JUMPDEST PUSH2 0x5CF DUP5 PUSH1 0x4 SLOAD PUSH1 0x1 PUSH1 0x40 MLOAD DUP1 PUSH1 0x20 ADD PUSH1 0x40 MSTORE DUP1 PUSH1 0x0 DUP2 MSTORE POP PUSH2 0xD6B JUMP JUMPDEST PUSH1 0x40 MLOAD DUP1 PUSH1 0x60 ADD PUSH1 0x40 MSTORE DUP1 DUP5 PUSH1 0xFF AND DUP2 MSTORE PUSH1 0x20 ADD DUP4 PUSH1 0xFF AND DUP2 MSTORE PUSH1 0x20 ADD DUP3 PUSH1 0x2 DUP2 GT ISZERO PUSH2 0x5FF JUMPI PUSH2 0x5FE PUSH2 0x22CC JUMP JUMPDEST JUMPDEST DUP2 MSTORE POP PUSH1 0x5 PUSH1 0x0 PUSH1 0x4 SLOAD DUP2 MSTORE PUSH1 0x20 ADD SWAP1 DUP2 MSTORE PUSH1 0x20 ADD PUSH1 0x0 KECCAK256 PUSH1 0x0 DUP3 ADD MLOAD DUP2 PUSH1 0x0 ADD PUSH1 0x0 PUSH2 0x100 EXP DUP2 SLOAD DUP2 PUSH1 0xFF MUL NOT AND SWAP1 DUP4 PUSH1 0xFF AND MUL OR SWAP1 SSTORE POP PUSH1 0x20 DUP3 ADD MLOAD DUP2 PUSH1 0x0 ADD PUSH1 0x1 PUSH2 0x100 EXP DUP2 SLOAD DUP2 PUSH1 0xFF MUL NOT AND SWAP1 DUP4 PUSH1 0xFF AND MUL OR SWAP1 SSTORE POP PUSH1 0x40 DUP3 ADD MLOAD DUP2 PUSH1 0x0 ADD PUSH1 0x2 PUSH2 0x100 EXP DUP2 SLOAD DUP2 PUSH1 0xFF MUL NOT AND SWAP1 DUP4 PUSH1 0x2 DUP2 GT ISZERO PUSH2 0x684 JUMPI PUSH2 0x683 PUSH2 0x22CC JUMP JUMPDEST JUMPDEST MUL OR SWAP1 SSTORE POP SWAP1 POP POP PUSH1 0x4 PUSH1 0x0 DUP2 SLOAD DUP1 SWAP3 SWAP2 SWAP1 PUSH2 0x69F SWAP1 PUSH2 0x2635 JUMP JUMPDEST SWAP2 SWAP1 POP SSTORE POP POP POP POP POP JUMP JUMPDEST PUSH1 0x0 PUSH2 0x6B4 PUSH2 0xE04 JUMP JUMPDEST SWAP1 POP DUP1 PUSH20 0xFFFFFFFFFFFFFFFFFFFFFFFFFFFFFFFFFFFFFFFF AND DUP7 PUSH20 0xFFFFFFFFFFFFFFFFFFFFFFFFFFFFFFFFFFFFFFFF AND EQ ISZERO DUP1 ISZERO PUSH2 0x6F9 JUMPI POP PUSH2 0x6F7 DUP7 DUP3 PUSH2 0xAB8 JUMP JUMPDEST ISZERO JUMPDEST ISZERO PUSH2 0x73D JUMPI DUP1 DUP7 PUSH1 0x40 MLOAD PUSH32 0xE237D92200000000000000000000000000000000000000000000000000000000 DUP2 MSTORE PUSH1 0x4 ADD PUSH2 0x734 SWAP3 SWAP2 SWAP1 PUSH2 0x267D JUMP JUMPDEST PUSH1 0x40 MLOAD DUP1 SWAP2 SUB SWAP1 REVERT JUMPDEST PUSH2 0x74A DUP7 DUP7 DUP7 DUP7 DUP7 PUSH2 0xE0C JUMP JUMPDEST POP POP POP POP POP POP JUMP JUMPDEST PUSH1 0x60 DUP2 MLOAD DUP4 MLOAD EQ PUSH2 0x79E JUMPI DUP2 MLOAD DUP4 MLOAD PUSH1 0x40 MLOAD PUSH32 0x5B05999100000000000000000000000000000000000000000000000000000000 DUP2 MSTORE PUSH1 0x4 ADD PUSH2 0x795 SWAP3 SWAP2 SWAP1 PUSH2 0x26A6 JUMP JUMPDEST PUSH1 0x40 MLOAD DUP1 SWAP2 SUB SWAP1 REVERT JUMPDEST PUSH1 0x0 DUP4 MLOAD PUSH8 0xFFFFFFFFFFFFFFFF DUP2 GT ISZERO PUSH2 0x7BB JUMPI PUSH2 0x7BA PUSH2 0x1DDB JUMP JUMPDEST JUMPDEST PUSH1 0x40 MLOAD SWAP1 DUP1 DUP3 MSTORE DUP1 PUSH1 0x20 MUL PUSH1 0x20 ADD DUP3 ADD PUSH1 0x40 MSTORE DUP1 ISZERO PUSH2 0x7E9 JUMPI DUP2 PUSH1 0x20 ADD PUSH1 0x20 DUP3 MUL DUP1 CALLDATASIZE DUP4 CALLDATACOPY DUP1 DUP3 ADD SWAP2 POP POP SWAP1 POP JUMPDEST POP SWAP1 POP PUSH1 0x0 JUMPDEST DUP5 MLOAD DUP2 LT ISZERO PUSH2 0x856 JUMPI PUSH2 0x826 PUSH2 0x80E DUP3 DUP8 PUSH2 0xF04 SWAP1 SWAP2 SWAP1 PUSH4 0xFFFFFFFF AND JUMP JUMPDEST PUSH2 0x821 DUP4 DUP8 PUSH2 0xF18 SWAP1 SWAP2 SWAP1 PUSH4 0xFFFFFFFF AND JUMP JUMPDEST PUSH2 0x381 JUMP JUMPDEST DUP3 DUP3 DUP2 MLOAD DUP2 LT PUSH2 0x839 JUMPI PUSH2 0x838 PUSH2 0x26CF JUMP JUMPDEST JUMPDEST PUSH1 0x20 MUL PUSH1 0x20 ADD ADD DUP2 DUP2 MSTORE POP POP DUP1 PUSH2 0x84F SWAP1 PUSH2 0x2635 JUMP JUMPDEST SWAP1 POP PUSH2 0x7EF JUMP JUMPDEST POP DUP1 SWAP2 POP POP SWAP3 SWAP2 POP POP JUMP JUMPDEST PUSH1 0x0 DUP1 PUSH1 0x0 CALLER PUSH20 0xFFFFFFFFFFFFFFFFFFFFFFFFFFFFFFFFFFFFFFFF AND PUSH2 0x885 PUSH2 0x99E JUMP JUMPDEST PUSH20 0xFFFFFFFFFFFFFFFFFFFFFFFFFFFFFFFFFFFFFFFF AND EQ DUP1 PUSH2 0x8F0 JUMPI POP PUSH1 0x6 PUSH1 0x0 CALLER PUSH20 0xFFFFFFFFFFFFFFFFFFFFFFFFFFFFFFFFFFFFFFFF AND PUSH20 0xFFFFFFFFFFFFFFFFFFFFFFFFFFFFFFFFFFFFFFFF AND DUP2 MSTORE PUSH1 0x20 ADD SWAP1 DUP2 MSTORE PUSH1 0x20 ADD PUSH1 0x0 KECCAK256 PUSH1 0x0 SWAP1 SLOAD SWAP1 PUSH2 0x100 EXP SWAP1 DIV PUSH1 0xFF AND JUMPDEST PUSH2 0x92F JUMPI PUSH1 0x40 MLOAD PUSH32 0x8C379A000000000000000000000000000000000000000000000000000000000 DUP2 MSTORE PUSH1 0x4 ADD PUSH2 0x926 SWAP1 PUSH2 0x2770 JUMP JUMPDEST PUSH1 0x40 MLOAD DUP1 SWAP2 SUB SWAP1 REVERT JUMPDEST PUSH1 0x0 PUSH1 0x5 PUSH1 0x0 DUP7 DUP2 MSTORE PUSH1 0x20 ADD SWAP1 DUP2 MSTORE PUSH1 0x20 ADD PUSH1 0x0 KECCAK256 SWAP1 POP DUP1 PUSH1 0x0 ADD PUSH1 0x0 SWAP1 SLOAD SWAP1 PUSH2 0x100 EXP SWAP1 DIV PUSH1 0xFF AND DUP2 PUSH1 0x0 ADD PUSH1 0x1 SWAP1 SLOAD SWAP1 PUSH2 0x100 EXP SWAP1 DIV PUSH1 0xFF AND DUP3 PUSH1 0x0 ADD PUSH1 0x2 SWAP1 SLOAD SWAP1 PUSH2 0x100 EXP SWAP1 DIV PUSH1 0xFF AND SWAP4 POP SWAP4 POP SWAP4 POP POP SWAP2 SWAP4 SWAP1 SWAP3 POP JUMP JUMPDEST PUSH2 0x992 PUSH2 0xCE4 JUMP JUMPDEST PUSH2 0x99C PUSH1 0x0 PUSH2 0xF2C JUMP JUMPDEST JUMP JUMPDEST PUSH1 0x0 PUSH1 0x3 PUSH1 0x0 SWAP1 SLOAD SWAP1 PUSH2 0x100 EXP SWAP1 DIV PUSH20 0xFFFFFFFFFFFFFFFFFFFFFFFFFFFFFFFFFFFFFFFF AND SWAP1 POP SWAP1 JUMP JUMPDEST PUSH1 0x5 PUSH1 0x20 MSTORE DUP1 PUSH1 0x0 MSTORE PUSH1 0x40 PUSH1 0x0 KECCAK256 PUSH1 0x0 SWAP2 POP SWAP1 POP DUP1 PUSH1 0x0 ADD PUSH1 0x0 SWAP1 SLOAD SWAP1 PUSH2 0x100 EXP SWAP1 DIV PUSH1 0xFF AND SWAP1 DUP1 PUSH1 0x0 ADD PUSH1 0x1 SWAP1 SLOAD SWAP1 PUSH2 0x100 EXP SWAP1 DIV PUSH1 0xFF AND SWAP1 DUP1 PUSH1 0x0 ADD PUSH1 0x2 SWAP1 SLOAD SWAP1 PUSH2 0x100 EXP SWAP1 DIV PUSH1 0xFF AND SWAP1 POP DUP4 JUMP JUMPDEST PUSH1 0x4 SLOAD DUP2 JUMP JUMPDEST PUSH2 0xA31 PUSH2 0xA2A PUSH2 0xE04 JUMP JUMPDEST DUP4 DUP4 PUSH2 0xFF2 JUMP JUMPDEST POP POP JUMP JUMPDEST PUSH1 0x6 PUSH1 0x20 MSTORE DUP1 PUSH1 0x0 MSTORE PUSH1 0x40 PUSH1 0x0 KECCAK256 PUSH1 0x0 SWAP2 POP SLOAD SWAP1 PUSH2 0x100 EXP SWAP1 DIV PUSH1 0xFF AND DUP2 JUMP JUMPDEST PUSH2 0xA5D PUSH2 0xCE4 JUMP JUMPDEST PUSH1 0x1 PUSH1 0x6 PUSH1 0x0 DUP4 PUSH20 0xFFFFFFFFFFFFFFFFFFFFFFFFFFFFFFFFFFFFFFFF AND PUSH20 0xFFFFFFFFFFFFFFFFFFFFFFFFFFFFFFFFFFFFFFFF AND DUP2 MSTORE PUSH1 0x20 ADD SWAP1 DUP2 MSTORE PUSH1 0x20 ADD PUSH1 0x0 KECCAK256 PUSH1 0x0 PUSH2 0x100 EXP DUP2 SLOAD DUP2 PUSH1 0xFF MUL NOT AND SWAP1 DUP4 ISZERO ISZERO MUL OR SWAP1 SSTORE POP POP JUMP JUMPDEST PUSH1 0x0 PUSH1 0x1 PUSH1 0x0 DUP5 PUSH20 0xFFFFFFFFFFFFFFFFFFFFFFFFFFFFFFFFFFFFFFFF AND PUSH20 0xFFFFFFFFFFFFFFFFFFFFFFFFFFFFFFFFFFFFFFFF AND DUP2 MSTORE PUSH1 0x20 ADD SWAP1 DUP2 MSTORE PUSH1 0x20 ADD PUSH1 0x0 KECCAK256 PUSH1 0x0 DUP4 PUSH20 0xFFFFFFFFFFFFFFFFFFFFFFFFFFFFFFFFFFFFFFFF AND PUSH20 0xFFFFFFFFFFFFFFFFFFFFFFFFFFFFFFFFFFFFFFFF AND DUP2 MSTORE PUSH1 0x20 ADD SWAP1 DUP2 MSTORE PUSH1 0x20 ADD PUSH1 0x0 KECCAK256 PUSH1 0x0 SWAP1 SLOAD SWAP1 PUSH2 0x100 EXP SWAP1 DIV PUSH1 0xFF AND SWAP1 POP SWAP3 SWAP2 POP POP JUMP JUMPDEST PUSH1 0x0 PUSH2 0xB56 PUSH2 0xE04 JUMP JUMPDEST SWAP1 POP DUP1 PUSH20 0xFFFFFFFFFFFFFFFFFFFFFFFFFFFFFFFFFFFFFFFF AND DUP7 PUSH20 0xFFFFFFFFFFFFFFFFFFFFFFFFFFFFFFFFFFFFFFFF AND EQ ISZERO DUP1 ISZERO PUSH2 0xB9B JUMPI POP PUSH2 0xB99 DUP7 DUP3 PUSH2 0xAB8 JUMP JUMPDEST ISZERO JUMPDEST ISZERO PUSH2 0xBDF JUMPI DUP1 DUP7 PUSH1 0x40 MLOAD PUSH32 0xE237D92200000000000000000000000000000000000000000000000000000000 DUP2 MSTORE PUSH1 0x4 ADD PUSH2 0xBD6 SWAP3 SWAP2 SWAP1 PUSH2 0x267D JUMP JUMPDEST PUSH1 0x40 MLOAD DUP1 SWAP2 SUB SWAP1 REVERT JUMPDEST PUSH2 0xBEC DUP7 DUP7 DUP7 DUP7 DUP7 PUSH2 0x1162 JUMP JUMPDEST POP POP POP POP POP POP JUMP JUMPDEST PUSH2 0xBFC PUSH2 0xCE4 JUMP JUMPDEST PUSH1 0x0 PUSH20 0xFFFFFFFFFFFFFFFFFFFFFFFFFFFFFFFFFFFFFFFF AND DUP2 PUSH20 0xFFFFFFFFFFFFFFFFFFFFFFFFFFFFFFFFFFFFFFFF AND SUB PUSH2 0xC6E JUMPI PUSH1 0x0 PUSH1 0x40 MLOAD PUSH32 0x1E4FBDF700000000000000000000000000000000000000000000000000000000 DUP2 MSTORE PUSH1 0x4 ADD PUSH2 0xC65 SWAP2 SWAP1 PUSH2 0x2389 JUMP JUMPDEST PUSH1 0x40 MLOAD DUP1 SWAP2 SUB SWAP1 REVERT JUMPDEST PUSH2 0xC77 DUP2 PUSH2 0xF2C JUMP JUMPDEST POP JUMP JUMPDEST PUSH1 0x0 PUSH32 0x1FFC9A700000000000000000000000000000000000000000000000000000000 PUSH28 0xFFFFFFFFFFFFFFFFFFFFFFFFFFFFFFFFFFFFFFFFFFFFFFFFFFFFFFFF NOT AND DUP3 PUSH28 0xFFFFFFFFFFFFFFFFFFFFFFFFFFFFFFFFFFFFFFFFFFFFFFFFFFFFFFFF NOT AND EQ SWAP1 POP SWAP2 SWAP1 POP JUMP JUMPDEST PUSH2 0xCEC PUSH2 0xE04 JUMP JUMPDEST PUSH20 0xFFFFFFFFFFFFFFFFFFFFFFFFFFFFFFFFFFFFFFFF AND PUSH2 0xD0A PUSH2 0x99E JUMP JUMPDEST PUSH20 0xFFFFFFFFFFFFFFFFFFFFFFFFFFFFFFFFFFFFFFFF AND EQ PUSH2 0xD69 JUMPI PUSH2 0xD2D PUSH2 0xE04 JUMP JUMPDEST PUSH1 0x40 MLOAD PUSH32 0x118CDAA700000000000000000000000000000000000000000000000000000000 DUP2 MSTORE PUSH1 0x4 ADD PUSH2 0xD60 SWAP2 SWAP1 PUSH2 0x2389 JUMP JUMPDEST PUSH1 0x40 MLOAD DUP1 SWAP2 SUB SWAP1 REVERT JUMPDEST JUMP JUMPDEST PUSH1 0x0 PUSH20 0xFFFFFFFFFFFFFFFFFFFFFFFFFFFFFFFFFFFFFFFF AND DUP5 PUSH20 0xFFFFFFFFFFFFFFFFFFFFFFFFFFFFFFFFFFFFFFFF AND SUB PUSH2 0xDDD JUMPI PUSH1 0x0 PUSH1 0x40 MLOAD PUSH32 0x57F447CE00000000000000000000000000000000000000000000000000000000 DUP2 MSTORE PUSH1 0x4 ADD PUSH2 0xDD4 SWAP2 SWAP1 PUSH2 0x2389 JUMP JUMPDEST PUSH1 0x40 MLOAD DUP1 SWAP2 SUB SWAP1 REVERT JUMPDEST PUSH1 0x0 DUP1 PUSH2 0xDEA DUP6 DUP6 PUSH2 0x126D JUMP JUMPDEST SWAP2 POP SWAP2 POP PUSH2 0xDFC PUSH1 0x0 DUP8 DUP5 DUP5 DUP8 PUSH2 0x129D JUMP JUMPDEST POP POP POP POP POP POP JUMP JUMPDEST PUSH1 0x0 CALLER SWAP1 POP SWAP1 JUMP JUMPDEST PUSH1 0x0 PUSH20 0xFFFFFFFFFFFFFFFFFFFFFFFFFFFFFFFFFFFFFFFF AND DUP5 PUSH20 0xFFFFFFFFFFFFFFFFFFFFFFFFFFFFFFFFFFFFFFFF AND SUB PUSH2 0xE7E JUMPI PUSH1 0x0 PUSH1 0x40 MLOAD PUSH32 0x57F447CE00000000000000000000000000000000000000000000000000000000 DUP2 MSTORE PUSH1 0x4 ADD PUSH2 0xE75 SWAP2 SWAP1 PUSH2 0x2389 JUMP JUMPDEST PUSH1 0x40 MLOAD DUP1 SWAP2 SUB SWAP1 REVERT JUMPDEST PUSH1 0x0 PUSH20 0xFFFFFFFFFFFFFFFFFFFFFFFFFFFFFFFFFFFFFFFF AND DUP6 PUSH20 0xFFFFFFFFFFFFFFFFFFFFFFFFFFFFFFFFFFFFFFFF AND SUB PUSH2 0xEF0 JUMPI PUSH1 0x0 PUSH1 0x40 MLOAD PUSH32 0x1A8351400000000000000000000000000000000000000000000000000000000 DUP2 MSTORE PUSH1 0x4 ADD PUSH2 0xEE7 SWAP2 SWAP1 PUSH2 0x2389 JUMP JUMPDEST PUSH1 0x40 MLOAD DUP1 SWAP2 SUB SWAP1 REVERT JUMPDEST PUSH2 0xEFD DUP6 DUP6 DUP6 DUP6 DUP6 PUSH2 0x129D JUMP JUMPDEST POP POP POP POP POP JUMP JUMPDEST PUSH1 0x0 PUSH1 0x20 DUP3 MUL PUSH1 0x20 DUP5 ADD ADD MLOAD SWAP1 POP SWAP3 SWAP2 POP POP JUMP JUMPDEST PUSH1 0x0 PUSH1 0x20 DUP3 MUL PUSH1 0x20 DUP5 ADD ADD MLOAD SWAP1 POP SWAP3 SWAP2 POP POP JUMP JUMPDEST PUSH1 0x0 PUSH1 0x3 PUSH1 0x0 SWAP1 SLOAD SWAP1 PUSH2 0x100 EXP SWAP1 DIV PUSH20 0xFFFFFFFFFFFFFFFFFFFFFFFFFFFFFFFFFFFFFFFF AND SWAP1 POP DUP2 PUSH1 0x3 PUSH1 0x0 PUSH2 0x100 EXP DUP2 SLOAD DUP2 PUSH20 0xFFFFFFFFFFFFFFFFFFFFFFFFFFFFFFFFFFFFFFFF MUL NOT AND SWAP1 DUP4 PUSH20 0xFFFFFFFFFFFFFFFFFFFFFFFFFFFFFFFFFFFFFFFF AND MUL OR SWAP1 SSTORE POP DUP2 PUSH20 0xFFFFFFFFFFFFFFFFFFFFFFFFFFFFFFFFFFFFFFFF AND DUP2 PUSH20 0xFFFFFFFFFFFFFFFFFFFFFFFFFFFFFFFFFFFFFFFF AND PUSH32 0x8BE0079C531659141344CD1FD0A4F28419497F9722A3DAAFE3B4186F6B6457E0 PUSH1 0x40 MLOAD PUSH1 0x40 MLOAD DUP1 SWAP2 SUB SWAP1 LOG3 POP POP JUMP JUMPDEST PUSH1 0x0 PUSH20 0xFFFFFFFFFFFFFFFFFFFFFFFFFFFFFFFFFFFFFFFF AND DUP3 PUSH20 0xFFFFFFFFFFFFFFFFFFFFFFFFFFFFFFFFFFFFFFFF AND SUB PUSH2 0x1064 JUMPI PUSH1 0x0 PUSH1 0x40 MLOAD PUSH32 0xCED3E10000000000000000000000000000000000000000000000000000000000 DUP2 MSTORE PUSH1 0x4 ADD PUSH2 0x105B SWAP2 SWAP1 PUSH2 0x2389 JUMP JUMPDEST PUSH1 0x40 MLOAD DUP1 SWAP2 SUB SWAP1 REVERT JUMPDEST DUP1 PUSH1 0x1 PUSH1 0x0 DUP6 PUSH20 0xFFFFFFFFFFFFFFFFFFFFFFFFFFFFFFFFFFFFFFFF AND PUSH20 0xFFFFFFFFFFFFFFFFFFFFFFFFFFFFFFFFFFFFFFFF AND DUP2 MSTORE PUSH1 0x20 ADD SWAP1 DUP2 MSTORE PUSH1 0x20 ADD PUSH1 0x0 KECCAK256 PUSH1 0x0 DUP5 PUSH20 0xFFFFFFFFFFFFFFFFFFFFFFFFFFFFFFFFFFFFFFFF AND PUSH20 0xFFFFFFFFFFFFFFFFFFFFFFFFFFFFFFFFFFFFFFFF AND DUP2 MSTORE PUSH1 0x20 ADD SWAP1 DUP2 MSTORE PUSH1 0x20 ADD PUSH1 0x0 KECCAK256 PUSH1 0x0 PUSH2 0x100 EXP DUP2 SLOAD DUP2 PUSH1 0xFF MUL NOT AND SWAP1 DUP4 ISZERO ISZERO MUL OR SWAP1 SSTORE POP DUP2 PUSH20 0xFFFFFFFFFFFFFFFFFFFFFFFFFFFFFFFFFFFFFFFF AND DUP4 PUSH20 0xFFFFFFFFFFFFFFFFFFFFFFFFFFFFFFFFFFFFFFFF AND PUSH32 0x17307EAB39AB6107E8899845AD3D59BD9653F200F220920489CA2B5937696C31 DUP4 PUSH1 0x40 MLOAD PUSH2 0x1155 SWAP2 SWAP1 PUSH2 0x1C17 JUMP JUMPDEST PUSH1 0x40 MLOAD DUP1 SWAP2 SUB SWAP1 LOG3 POP POP POP JUMP JUMPDEST PUSH1 0x0 PUSH20 0xFFFFFFFFFFFFFFFFFFFFFFFFFFFFFFFFFFFFFFFF AND DUP5 PUSH20 0xFFFFFFFFFFFFFFFFFFFFFFFFFFFFFFFFFFFFFFFF AND SUB PUSH2 0x11D4 JUMPI PUSH1 0x0 PUSH1 0x40 MLOAD PUSH32 0x57F447CE00000000000000000000000000000000000000000000000000000000 DUP2 MSTORE PUSH1 0x4 ADD PUSH2 0x11CB SWAP2 SWAP1 PUSH2 0x2389 JUMP JUMPDEST PUSH1 0x40 MLOAD DUP1 SWAP2 SUB SWAP1 REVERT JUMPDEST PUSH1 0x0 PUSH20 0xFFFFFFFFFFFFFFFFFFFFFFFFFFFFFFFFFFFFFFFF AND DUP6 PUSH20 0xFFFFFFFFFFFFFFFFFFFFFFFFFFFFFFFFFFFFFFFF AND SUB PUSH2 0x1246 JUMPI PUSH1 0x0 PUSH1 0x40 MLOAD PUSH32 0x1A8351400000000000000000000000000000000000000000000000000000000 DUP2 MSTORE PUSH1 0x4 ADD PUSH2 0x123D SWAP2 SWAP1 PUSH2 0x2389 JUMP JUMPDEST PUSH1 0x40 MLOAD DUP1 SWAP2 SUB SWAP1 REVERT JUMPDEST PUSH1 0x0 DUP1 PUSH2 0x1253 DUP6 DUP6 PUSH2 0x126D JUMP JUMPDEST SWAP2 POP SWAP2 POP PUSH2 0x1264 DUP8 DUP8 DUP5 DUP5 DUP8 PUSH2 0x129D JUMP JUMPDEST POP POP POP POP POP POP POP JUMP JUMPDEST PUSH1 0x60 DUP1 PUSH1 0x40 MLOAD SWAP2 POP PUSH1 0x1 DUP3 MSTORE DUP4 PUSH1 0x20 DUP4 ADD MSTORE PUSH1 0x40 DUP3 ADD SWAP1 POP PUSH1 0x1 DUP2 MSTORE DUP3 PUSH1 0x20 DUP3 ADD MSTORE PUSH1 0x40 DUP2 ADD PUSH1 0x40 MSTORE SWAP3 POP SWAP3 SWAP1 POP JUMP JUMPDEST PUSH2 0x12A9 DUP6 DUP6 DUP6 DUP6 PUSH2 0x134F JUMP JUMPDEST PUSH1 0x0 PUSH20 0xFFFFFFFFFFFFFFFFFFFFFFFFFFFFFFFFFFFFFFFF AND DUP5 PUSH20 0xFFFFFFFFFFFFFFFFFFFFFFFFFFFFFFFFFFFFFFFF AND EQ PUSH2 0x1348 JUMPI PUSH1 0x0 PUSH2 0x12E7 PUSH2 0xE04 JUMP JUMPDEST SWAP1 POP PUSH1 0x1 DUP5 MLOAD SUB PUSH2 0x1337 JUMPI PUSH1 0x0 PUSH2 0x1308 PUSH1 0x0 DUP7 PUSH2 0xF18 SWAP1 SWAP2 SWAP1 PUSH4 0xFFFFFFFF AND JUMP JUMPDEST SWAP1 POP PUSH1 0x0 PUSH2 0x1320 PUSH1 0x0 DUP7 PUSH2 0xF18 SWAP1 SWAP2 SWAP1 PUSH4 0xFFFFFFFF AND JUMP JUMPDEST SWAP1 POP PUSH2 0x1330 DUP4 DUP10 DUP10 DUP6 DUP6 DUP10 PUSH2 0x16FD JUMP JUMPDEST POP POP PUSH2 0x1346 JUMP JUMPDEST PUSH2 0x1345 DUP2 DUP8 DUP8 DUP8 DUP8 DUP8 PUSH2 0x18B1 JUMP JUMPDEST JUMPDEST POP JUMPDEST POP POP POP POP POP JUMP JUMPDEST DUP1 MLOAD DUP3 MLOAD EQ PUSH2 0x1399 JUMPI DUP2 MLOAD DUP2 MLOAD PUSH1 0x40 MLOAD PUSH32 0x5B05999100000000000000000000000000000000000000000000000000000000 DUP2 MSTORE PUSH1 0x4 ADD PUSH2 0x1390 SWAP3 SWAP2 SWAP1 PUSH2 0x26A6 JUMP JUMPDEST PUSH1 0x40 MLOAD DUP1 SWAP2 SUB SWAP1 REVERT JUMPDEST PUSH1 0x0 PUSH2 0x13A3 PUSH2 0xE04 JUMP JUMPDEST SWAP1 POP PUSH1 0x0 JUMPDEST DUP4 MLOAD DUP2 LT ISZERO PUSH2 0x15B8 JUMPI PUSH1 0x0 PUSH2 0x13C6 DUP3 DUP7 PUSH2 0xF18 SWAP1 SWAP2 SWAP1 PUSH4 0xFFFFFFFF AND JUMP JUMPDEST SWAP1 POP PUSH1 0x0 PUSH2 0x13DD DUP4 DUP7 PUSH2 0xF18 SWAP1 SWAP2 SWAP1 PUSH4 0xFFFFFFFF AND JUMP JUMPDEST SWAP1 POP PUSH1 0x0 PUSH20 0xFFFFFFFFFFFFFFFFFFFFFFFFFFFFFFFFFFFFFFFF AND DUP9 PUSH20 0xFFFFFFFFFFFFFFFFFFFFFFFFFFFFFFFFFFFFFFFF AND EQ PUSH2 0x150A JUMPI PUSH1 0x0 DUP1 PUSH1 0x0 DUP5 DUP2 MSTORE PUSH1 0x20 ADD SWAP1 DUP2 MSTORE PUSH1 0x20 ADD PUSH1 0x0 KECCAK256 PUSH1 0x0 DUP11 PUSH20 0xFFFFFFFFFFFFFFFFFFFFFFFFFFFFFFFFFFFFFFFF AND PUSH20 0xFFFFFFFFFFFFFFFFFFFFFFFFFFFFFFFFFFFFFFFF AND DUP2 MSTORE PUSH1 0x20 ADD SWAP1 DUP2 MSTORE PUSH1 0x20 ADD PUSH1 0x0 KECCAK256 SLOAD SWAP1 POP DUP2 DUP2 LT ISZERO PUSH2 0x14B2 JUMPI DUP9 DUP2 DUP4 DUP6 PUSH1 0x40 MLOAD PUSH32 0x3DEE4C500000000000000000000000000000000000000000000000000000000 DUP2 MSTORE PUSH1 0x4 ADD PUSH2 0x14A9 SWAP5 SWAP4 SWAP3 SWAP2 SWAP1 PUSH2 0x2790 JUMP JUMPDEST PUSH1 0x40 MLOAD DUP1 SWAP2 SUB SWAP1 REVERT JUMPDEST DUP2 DUP2 SUB PUSH1 0x0 DUP1 DUP6 DUP2 MSTORE PUSH1 0x20 ADD SWAP1 DUP2 MSTORE PUSH1 0x20 ADD PUSH1 0x0 KECCAK256 PUSH1 0x0 DUP12 PUSH20 0xFFFFFFFFFFFFFFFFFFFFFFFFFFFFFFFFFFFFFFFF AND PUSH20 0xFFFFFFFFFFFFFFFFFFFFFFFFFFFFFFFFFFFFFFFF AND DUP2 MSTORE PUSH1 0x20 ADD SWAP1 DUP2 MSTORE PUSH1 0x20 ADD PUSH1 0x0 KECCAK256 DUP2 SWAP1 SSTORE POP POP JUMPDEST PUSH1 0x0 PUSH20 0xFFFFFFFFFFFFFFFFFFFFFFFFFFFFFFFFFFFFFFFF AND DUP8 PUSH20 0xFFFFFFFFFFFFFFFFFFFFFFFFFFFFFFFFFFFFFFFF AND EQ PUSH2 0x15A5 JUMPI DUP1 PUSH1 0x0 DUP1 DUP5 DUP2 MSTORE PUSH1 0x20 ADD SWAP1 DUP2 MSTORE PUSH1 0x20 ADD PUSH1 0x0 KECCAK256 PUSH1 0x0 DUP10 PUSH20 0xFFFFFFFFFFFFFFFFFFFFFFFFFFFFFFFFFFFFFFFF AND PUSH20 0xFFFFFFFFFFFFFFFFFFFFFFFFFFFFFFFFFFFFFFFF AND DUP2 MSTORE PUSH1 0x20 ADD SWAP1 DUP2 MSTORE PUSH1 0x20 ADD PUSH1 0x0 KECCAK256 PUSH1 0x0 DUP3 DUP3 SLOAD PUSH2 0x159D SWAP2 SWAP1 PUSH2 0x27D5 JUMP JUMPDEST SWAP3 POP POP DUP2 SWAP1 SSTORE POP JUMPDEST POP POP DUP1 PUSH2 0x15B1 SWAP1 PUSH2 0x2635 JUMP JUMPDEST SWAP1 POP PUSH2 0x13A8 JUMP JUMPDEST POP PUSH1 0x1 DUP4 MLOAD SUB PUSH2 0x1677 JUMPI PUSH1 0x0 PUSH2 0x15D8 PUSH1 0x0 DUP6 PUSH2 0xF18 SWAP1 SWAP2 SWAP1 PUSH4 0xFFFFFFFF AND JUMP JUMPDEST SWAP1 POP PUSH1 0x0 PUSH2 0x15F0 PUSH1 0x0 DUP6 PUSH2 0xF18 SWAP1 SWAP2 SWAP1 PUSH4 0xFFFFFFFF AND JUMP JUMPDEST SWAP1 POP DUP6 PUSH20 0xFFFFFFFFFFFFFFFFFFFFFFFFFFFFFFFFFFFFFFFF AND DUP8 PUSH20 0xFFFFFFFFFFFFFFFFFFFFFFFFFFFFFFFFFFFFFFFF AND DUP5 PUSH20 0xFFFFFFFFFFFFFFFFFFFFFFFFFFFFFFFFFFFFFFFF AND PUSH32 0xC3D58168C5AE7397731D063D5BBF3D657854427343F4C083240F7AACAA2D0F62 DUP6 DUP6 PUSH1 0x40 MLOAD PUSH2 0x1668 SWAP3 SWAP2 SWAP1 PUSH2 0x26A6 JUMP JUMPDEST PUSH1 0x40 MLOAD DUP1 SWAP2 SUB SWAP1 LOG4 POP POP PUSH2 0x16F6 JUMP JUMPDEST DUP4 PUSH20 0xFFFFFFFFFFFFFFFFFFFFFFFFFFFFFFFFFFFFFFFF AND DUP6 PUSH20 0xFFFFFFFFFFFFFFFFFFFFFFFFFFFFFFFFFFFFFFFF AND DUP3 PUSH20 0xFFFFFFFFFFFFFFFFFFFFFFFFFFFFFFFFFFFFFFFF AND PUSH32 0x4A39DC06D4C0DBC64B70AF90FD698A233A518AA5D07E595D983B8C0526C8F7FB DUP7 DUP7 PUSH1 0x40 MLOAD PUSH2 0x16ED SWAP3 SWAP2 SWAP1 PUSH2 0x2809 JUMP JUMPDEST PUSH1 0x40 MLOAD DUP1 SWAP2 SUB SWAP1 LOG4 JUMPDEST POP POP POP POP POP JUMP JUMPDEST PUSH1 0x0 DUP5 PUSH20 0xFFFFFFFFFFFFFFFFFFFFFFFFFFFFFFFFFFFFFFFF AND EXTCODESIZE GT ISZERO PUSH2 0x18A9 JUMPI DUP4 PUSH20 0xFFFFFFFFFFFFFFFFFFFFFFFFFFFFFFFFFFFFFFFF AND PUSH4 0xF23A6E61 DUP8 DUP8 DUP7 DUP7 DUP7 PUSH1 0x40 MLOAD DUP7 PUSH4 0xFFFFFFFF AND PUSH1 0xE0 SHL DUP2 MSTORE PUSH1 0x4 ADD PUSH2 0x175E SWAP6 SWAP5 SWAP4 SWAP3 SWAP2 SWAP1 PUSH2 0x2895 JUMP JUMPDEST PUSH1 0x20 PUSH1 0x40 MLOAD DUP1 DUP4 SUB DUP2 PUSH1 0x0 DUP8 GAS CALL SWAP3 POP POP POP DUP1 ISZERO PUSH2 0x179A JUMPI POP PUSH1 0x40 MLOAD RETURNDATASIZE PUSH1 0x1F NOT PUSH1 0x1F DUP3 ADD AND DUP3 ADD DUP1 PUSH1 0x40 MSTORE POP DUP2 ADD SWAP1 PUSH2 0x1797 SWAP2 SWAP1 PUSH2 0x2904 JUMP JUMPDEST PUSH1 0x1 JUMPDEST PUSH2 0x181E JUMPI RETURNDATASIZE DUP1 PUSH1 0x0 DUP2 EQ PUSH2 0x17CA JUMPI PUSH1 0x40 MLOAD SWAP2 POP PUSH1 0x1F NOT PUSH1 0x3F RETURNDATASIZE ADD AND DUP3 ADD PUSH1 0x40 MSTORE RETURNDATASIZE DUP3 MSTORE RETURNDATASIZE PUSH1 0x0 PUSH1 0x20 DUP5 ADD RETURNDATACOPY PUSH2 0x17CF JUMP JUMPDEST PUSH1 0x60 SWAP2 POP JUMPDEST POP PUSH1 0x0 DUP2 MLOAD SUB PUSH2 0x1816 JUMPI DUP5 PUSH1 0x40 MLOAD PUSH32 0x57F447CE00000000000000000000000000000000000000000000000000000000 DUP2 MSTORE PUSH1 0x4 ADD PUSH2 0x180D SWAP2 SWAP1 PUSH2 0x2389 JUMP JUMPDEST PUSH1 0x40 MLOAD DUP1 SWAP2 SUB SWAP1 REVERT JUMPDEST DUP1 MLOAD DUP2 PUSH1 0x20 ADD REVERT JUMPDEST PUSH4 0xF23A6E61 PUSH1 0xE0 SHL PUSH28 0xFFFFFFFFFFFFFFFFFFFFFFFFFFFFFFFFFFFFFFFFFFFFFFFFFFFFFFFF NOT AND DUP2 PUSH28 0xFFFFFFFFFFFFFFFFFFFFFFFFFFFFFFFFFFFFFFFFFFFFFFFFFFFFFFFF NOT AND EQ PUSH2 0x18A7 JUMPI DUP5 PUSH1 0x40 MLOAD PUSH32 0x57F447CE00000000000000000000000000000000000000000000000000000000 DUP2 MSTORE PUSH1 0x4 ADD PUSH2 0x189E SWAP2 SWAP1 PUSH2 0x2389 JUMP JUMPDEST PUSH1 0x40 MLOAD DUP1 SWAP2 SUB SWAP1 REVERT JUMPDEST POP JUMPDEST POP POP POP POP POP POP JUMP JUMPDEST PUSH1 0x0 DUP5 PUSH20 0xFFFFFFFFFFFFFFFFFFFFFFFFFFFFFFFFFFFFFFFF AND EXTCODESIZE GT ISZERO PUSH2 0x1A5D JUMPI DUP4 PUSH20 0xFFFFFFFFFFFFFFFFFFFFFFFFFFFFFFFFFFFFFFFF AND PUSH4 0xBC197C81 DUP8 DUP8 DUP7 DUP7 DUP7 PUSH1 0x40 MLOAD DUP7 PUSH4 0xFFFFFFFF AND PUSH1 0xE0 SHL DUP2 MSTORE PUSH1 0x4 ADD PUSH2 0x1912 SWAP6 SWAP5 SWAP4 SWAP3 SWAP2 SWAP1 PUSH2 0x2931 JUMP JUMPDEST PUSH1 0x20 PUSH1 0x40 MLOAD DUP1 DUP4 SUB DUP2 PUSH1 0x0 DUP8 GAS CALL SWAP3 POP POP POP DUP1 ISZERO PUSH2 0x194E JUMPI POP PUSH1 0x40 MLOAD RETURNDATASIZE PUSH1 0x1F NOT PUSH1 0x1F DUP3 ADD AND DUP3 ADD DUP1 PUSH1 0x40 MSTORE POP DUP2 ADD SWAP1 PUSH2 0x194B SWAP2 SWAP1 PUSH2 0x2904 JUMP JUMPDEST PUSH1 0x1 JUMPDEST PUSH2 0x19D2 JUMPI RETURNDATASIZE DUP1 PUSH1 0x0 DUP2 EQ PUSH2 0x197E JUMPI PUSH1 0x40 MLOAD SWAP2 POP PUSH1 0x1F NOT PUSH1 0x3F RETURNDATASIZE ADD AND DUP3 ADD PUSH1 0x40 MSTORE RETURNDATASIZE DUP3 MSTORE RETURNDATASIZE PUSH1 0x0 PUSH1 0x20 DUP5 ADD RETURNDATACOPY PUSH2 0x1983 JUMP JUMPDEST PUSH1 0x60 SWAP2 POP JUMPDEST POP PUSH1 0x0 DUP2 MLOAD SUB PUSH2 0x19CA JUMPI DUP5 PUSH1 0x40 MLOAD PUSH32 0x57F447CE00000000000000000000000000000000000000000000000000000000 DUP2 MSTORE PUSH1 0x4 ADD PUSH2 0x19C1 SWAP2 SWAP1 PUSH2 0x2389 JUMP JUMPDEST PUSH1 0x40 MLOAD DUP1 SWAP2 SUB SWAP1 REVERT JUMPDEST DUP1 MLOAD DUP2 PUSH1 0x20 ADD REVERT JUMPDEST PUSH4 0xBC197C81 PUSH1 0xE0 SHL PUSH28 0xFFFFFFFFFFFFFFFFFFFFFFFFFFFFFFFFFFFFFFFFFFFFFFFFFFFFFFFF NOT AND DUP2 PUSH28 0xFFFFFFFFFFFFFFFFFFFFFFFFFFFFFFFFFFFFFFFFFFFFFFFFFFFFFFFF NOT AND EQ PUSH2 0x1A5B JUMPI DUP5 PUSH1 0x40 MLOAD PUSH32 0x57F447CE00000000000000000000000000000000000000000000000000000000 DUP2 MSTORE PUSH1 0x4 ADD PUSH2 0x1A52 SWAP2 SWAP1 PUSH2 0x2389 JUMP JUMPDEST PUSH1 0x40 MLOAD DUP1 SWAP2 SUB SWAP1 REVERT JUMPDEST POP JUMPDEST POP POP POP POP POP POP JUMP JUMPDEST PUSH1 0x0 PUSH1 0x40 MLOAD SWAP1 POP SWAP1 JUMP JUMPDEST PUSH1 0x0 DUP1 REVERT JUMPDEST PUSH1 0x0 DUP1 REVERT JUMPDEST PUSH1 0x0 PUSH20 0xFFFFFFFFFFFFFFFFFFFFFFFFFFFFFFFFFFFFFFFF DUP3 AND SWAP1 POP SWAP2 SWAP1 POP JUMP JUMPDEST PUSH1 0x0 PUSH2 0x1AA4 DUP3 PUSH2 0x1A79 JUMP JUMPDEST SWAP1 POP SWAP2 SWAP1 POP JUMP JUMPDEST PUSH2 0x1AB4 DUP2 PUSH2 0x1A99 JUMP JUMPDEST DUP2 EQ PUSH2 0x1ABF JUMPI PUSH1 0x0 DUP1 REVERT JUMPDEST POP JUMP JUMPDEST PUSH1 0x0 DUP2 CALLDATALOAD SWAP1 POP PUSH2 0x1AD1 DUP2 PUSH2 0x1AAB JUMP JUMPDEST SWAP3 SWAP2 POP POP JUMP JUMPDEST PUSH1 0x0 DUP2 SWAP1 POP SWAP2 SWAP1 POP JUMP JUMPDEST PUSH2 0x1AEA DUP2 PUSH2 0x1AD7 JUMP JUMPDEST DUP2 EQ PUSH2 0x1AF5 JUMPI PUSH1 0x0 DUP1 REVERT JUMPDEST POP JUMP JUMPDEST PUSH1 0x0 DUP2 CALLDATALOAD SWAP1 POP PUSH2 0x1B07 DUP2 PUSH2 0x1AE1 JUMP JUMPDEST SWAP3 SWAP2 POP POP JUMP JUMPDEST PUSH1 0x0 DUP1 PUSH1 0x40 DUP4 DUP6 SUB SLT ISZERO PUSH2 0x1B24 JUMPI PUSH2 0x1B23 PUSH2 0x1A6F JUMP JUMPDEST JUMPDEST PUSH1 0x0 PUSH2 0x1B32 DUP6 DUP3 DUP7 ADD PUSH2 0x1AC2 JUMP JUMPDEST SWAP3 POP POP PUSH1 0x20 PUSH2 0x1B43 DUP6 DUP3 DUP7 ADD PUSH2 0x1AF8 JUMP JUMPDEST SWAP2 POP POP SWAP3 POP SWAP3 SWAP1 POP JUMP JUMPDEST PUSH2 0x1B56 DUP2 PUSH2 0x1AD7 JUMP JUMPDEST DUP3 MSTORE POP POP JUMP JUMPDEST PUSH1 0x0 PUSH1 0x20 DUP3 ADD SWAP1 POP PUSH2 0x1B71 PUSH1 0x0 DUP4 ADD DUP5 PUSH2 0x1B4D JUMP JUMPDEST SWAP3 SWAP2 POP POP JUMP JUMPDEST PUSH1 0x0 PUSH32 0xFFFFFFFF00000000000000000000000000000000000000000000000000000000 DUP3 AND SWAP1 POP SWAP2 SWAP1 POP JUMP JUMPDEST PUSH2 0x1BAC DUP2 PUSH2 0x1B77 JUMP JUMPDEST DUP2 EQ PUSH2 0x1BB7 JUMPI PUSH1 0x0 DUP1 REVERT JUMPDEST POP JUMP JUMPDEST PUSH1 0x0 DUP2 CALLDATALOAD SWAP1 POP PUSH2 0x1BC9 DUP2 PUSH2 0x1BA3 JUMP JUMPDEST SWAP3 SWAP2 POP POP JUMP JUMPDEST PUSH1 0x0 PUSH1 0x20 DUP3 DUP5 SUB SLT ISZERO PUSH2 0x1BE5 JUMPI PUSH2 0x1BE4 PUSH2 0x1A6F JUMP JUMPDEST JUMPDEST PUSH1 0x0 PUSH2 0x1BF3 DUP5 DUP3 DUP6 ADD PUSH2 0x1BBA JUMP JUMPDEST SWAP2 POP POP SWAP3 SWAP2 POP POP JUMP JUMPDEST PUSH1 0x0 DUP2 ISZERO ISZERO SWAP1 POP SWAP2 SWAP1 POP JUMP JUMPDEST PUSH2 0x1C11 DUP2 PUSH2 0x1BFC JUMP JUMPDEST DUP3 MSTORE POP POP JUMP JUMPDEST PUSH1 0x0 PUSH1 0x20 DUP3 ADD SWAP1 POP PUSH2 0x1C2C PUSH1 0x0 DUP4 ADD DUP5 PUSH2 0x1C08 JUMP JUMPDEST SWAP3 SWAP2 POP POP JUMP JUMPDEST PUSH1 0x0 PUSH1 0x20 DUP3 DUP5 SUB SLT ISZERO PUSH2 0x1C48 JUMPI PUSH2 0x1C47 PUSH2 0x1A6F JUMP JUMPDEST JUMPDEST PUSH1 0x0 PUSH2 0x1C56 DUP5 DUP3 DUP6 ADD PUSH2 0x1AF8 JUMP JUMPDEST SWAP2 POP POP SWAP3 SWAP2 POP POP JUMP JUMPDEST PUSH1 0x0 DUP2 MLOAD SWAP1 POP SWAP2 SWAP1 POP JUMP JUMPDEST PUSH1 0x0 DUP3 DUP3 MSTORE PUSH1 0x20 DUP3 ADD SWAP1 POP SWAP3 SWAP2 POP POP JUMP JUMPDEST PUSH1 0x0 JUMPDEST DUP4 DUP2 LT ISZERO PUSH2 0x1C99 JUMPI DUP1 DUP3 ADD MLOAD DUP2 DUP5 ADD MSTORE PUSH1 0x20 DUP2 ADD SWAP1 POP PUSH2 0x1C7E JUMP JUMPDEST PUSH1 0x0 DUP5 DUP5 ADD MSTORE POP POP POP POP JUMP JUMPDEST PUSH1 0x0 PUSH1 0x1F NOT PUSH1 0x1F DUP4 ADD AND SWAP1 POP SWAP2 SWAP1 POP JUMP JUMPDEST PUSH1 0x0 PUSH2 0x1CC1 DUP3 PUSH2 0x1C5F JUMP JUMPDEST PUSH2 0x1CCB DUP2 DUP6 PUSH2 0x1C6A JUMP JUMPDEST SWAP4 POP PUSH2 0x1CDB DUP2 DUP6 PUSH1 0x20 DUP7 ADD PUSH2 0x1C7B JUMP JUMPDEST PUSH2 0x1CE4 DUP2 PUSH2 0x1CA5 JUMP JUMPDEST DUP5 ADD SWAP2 POP POP SWAP3 SWAP2 POP POP JUMP JUMPDEST PUSH1 0x0 PUSH1 0x20 DUP3 ADD SWAP1 POP DUP2 DUP2 SUB PUSH1 0x0 DUP4 ADD MSTORE PUSH2 0x1D09 DUP2 DUP5 PUSH2 0x1CB6 JUMP JUMPDEST SWAP1 POP SWAP3 SWAP2 POP POP JUMP JUMPDEST PUSH1 0x0 PUSH1 0xFF DUP3 AND SWAP1 POP SWAP2 SWAP1 POP JUMP JUMPDEST PUSH2 0x1D27 DUP2 PUSH2 0x1D11 JUMP JUMPDEST DUP2 EQ PUSH2 0x1D32 JUMPI PUSH1 0x0 DUP1 REVERT JUMPDEST POP JUMP JUMPDEST PUSH1 0x0 DUP2 CALLDATALOAD SWAP1 POP PUSH2 0x1D44 DUP2 PUSH2 0x1D1E JUMP JUMPDEST SWAP3 SWAP2 POP POP JUMP JUMPDEST PUSH1 0x3 DUP2 LT PUSH2 0x1D57 JUMPI PUSH1 0x0 DUP1 REVERT JUMPDEST POP JUMP JUMPDEST PUSH1 0x0 DUP2 CALLDATALOAD SWAP1 POP PUSH2 0x1D69 DUP2 PUSH2 0x1D4A JUMP JUMPDEST SWAP3 SWAP2 POP POP JUMP JUMPDEST PUSH1 0x0 DUP1 PUSH1 0x0 DUP1 PUSH1 0x80 DUP6 DUP8 SUB SLT ISZERO PUSH2 0x1D89 JUMPI PUSH2 0x1D88 PUSH2 0x1A6F JUMP JUMPDEST JUMPDEST PUSH1 0x0 PUSH2 0x1D97 DUP8 DUP3 DUP9 ADD PUSH2 0x1AC2 JUMP JUMPDEST SWAP5 POP POP PUSH1 0x20 PUSH2 0x1DA8 DUP8 DUP3 DUP9 ADD PUSH2 0x1D35 JUMP JUMPDEST SWAP4 POP POP PUSH1 0x40 PUSH2 0x1DB9 DUP8 DUP3 DUP9 ADD PUSH2 0x1D35 JUMP JUMPDEST SWAP3 POP POP PUSH1 0x60 PUSH2 0x1DCA DUP8 DUP3 DUP9 ADD PUSH2 0x1D5A JUMP JUMPDEST SWAP2 POP POP SWAP3 SWAP6 SWAP2 SWAP5 POP SWAP3 POP JUMP JUMPDEST PUSH1 0x0 DUP1 REVERT JUMPDEST PUSH32 0x4E487B7100000000000000000000000000000000000000000000000000000000 PUSH1 0x0 MSTORE PUSH1 0x41 PUSH1 0x4 MSTORE PUSH1 0x24 PUSH1 0x0 REVERT JUMPDEST PUSH2 0x1E13 DUP3 PUSH2 0x1CA5 JUMP JUMPDEST DUP2 ADD DUP2 DUP2 LT PUSH8 0xFFFFFFFFFFFFFFFF DUP3 GT OR ISZERO PUSH2 0x1E32 JUMPI PUSH2 0x1E31 PUSH2 0x1DDB JUMP JUMPDEST JUMPDEST DUP1 PUSH1 0x40 MSTORE POP POP POP JUMP JUMPDEST PUSH1 0x0 PUSH2 0x1E45 PUSH2 0x1A65 JUMP JUMPDEST SWAP1 POP PUSH2 0x1E51 DUP3 DUP3 PUSH2 0x1E0A JUMP JUMPDEST SWAP2 SWAP1 POP JUMP JUMPDEST PUSH1 0x0 PUSH8 0xFFFFFFFFFFFFFFFF DUP3 GT ISZERO PUSH2 0x1E71 JUMPI PUSH2 0x1E70 PUSH2 0x1DDB JUMP JUMPDEST JUMPDEST PUSH1 0x20 DUP3 MUL SWAP1 POP PUSH1 0x20 DUP2 ADD SWAP1 POP SWAP2 SWAP1 POP JUMP JUMPDEST PUSH1 0x0 DUP1 REVERT JUMPDEST PUSH1 0x0 PUSH2 0x1E9A PUSH2 0x1E95 DUP5 PUSH2 0x1E56 JUMP JUMPDEST PUSH2 0x1E3B JUMP JUMPDEST SWAP1 POP DUP1 DUP4 DUP3 MSTORE PUSH1 0x20 DUP3 ADD SWAP1 POP PUSH1 0x20 DUP5 MUL DUP4 ADD DUP6 DUP2 GT ISZERO PUSH2 0x1EBD JUMPI PUSH2 0x1EBC PUSH2 0x1E82 JUMP JUMPDEST JUMPDEST DUP4 JUMPDEST DUP2 DUP2 LT ISZERO PUSH2 0x1EE6 JUMPI DUP1 PUSH2 0x1ED2 DUP9 DUP3 PUSH2 0x1AF8 JUMP JUMPDEST DUP5 MSTORE PUSH1 0x20 DUP5 ADD SWAP4 POP POP PUSH1 0x20 DUP2 ADD SWAP1 POP PUSH2 0x1EBF JUMP JUMPDEST POP POP POP SWAP4 SWAP3 POP POP POP JUMP JUMPDEST PUSH1 0x0 DUP3 PUSH1 0x1F DUP4 ADD SLT PUSH2 0x1F05 JUMPI PUSH2 0x1F04 PUSH2 0x1DD6 JUMP JUMPDEST JUMPDEST DUP2 CALLDATALOAD PUSH2 0x1F15 DUP5 DUP3 PUSH1 0x20 DUP7 ADD PUSH2 0x1E87 JUMP JUMPDEST SWAP2 POP POP SWAP3 SWAP2 POP POP JUMP JUMPDEST PUSH1 0x0 DUP1 REVERT JUMPDEST PUSH1 0x0 PUSH8 0xFFFFFFFFFFFFFFFF DUP3 GT ISZERO PUSH2 0x1F3E JUMPI PUSH2 0x1F3D PUSH2 0x1DDB JUMP JUMPDEST JUMPDEST PUSH2 0x1F47 DUP3 PUSH2 0x1CA5 JUMP JUMPDEST SWAP1 POP PUSH1 0x20 DUP2 ADD SWAP1 POP SWAP2 SWAP1 POP JUMP JUMPDEST DUP3 DUP2 DUP4 CALLDATACOPY PUSH1 0x0 DUP4 DUP4 ADD MSTORE POP POP POP JUMP JUMPDEST PUSH1 0x0 PUSH2 0x1F76 PUSH2 0x1F71 DUP5 PUSH2 0x1F23 JUMP JUMPDEST PUSH2 0x1E3B JUMP JUMPDEST SWAP1 POP DUP3 DUP2 MSTORE PUSH1 0x20 DUP2 ADD DUP5 DUP5 DUP5 ADD GT ISZERO PUSH2 0x1F92 JUMPI PUSH2 0x1F91 PUSH2 0x1F1E JUMP JUMPDEST JUMPDEST PUSH2 0x1F9D DUP5 DUP3 DUP6 PUSH2 0x1F54 JUMP JUMPDEST POP SWAP4 SWAP3 POP POP POP JUMP JUMPDEST PUSH1 0x0 DUP3 PUSH1 0x1F DUP4 ADD SLT PUSH2 0x1FBA JUMPI PUSH2 0x1FB9 PUSH2 0x1DD6 JUMP JUMPDEST JUMPDEST DUP2 CALLDATALOAD PUSH2 0x1FCA DUP5 DUP3 PUSH1 0x20 DUP7 ADD PUSH2 0x1F63 JUMP JUMPDEST SWAP2 POP POP SWAP3 SWAP2 POP POP JUMP JUMPDEST PUSH1 0x0 DUP1 PUSH1 0x0 DUP1 PUSH1 0x0 PUSH1 0xA0 DUP7 DUP9 SUB SLT ISZERO PUSH2 0x1FEF JUMPI PUSH2 0x1FEE PUSH2 0x1A6F JUMP JUMPDEST JUMPDEST PUSH1 0x0 PUSH2 0x1FFD DUP9 DUP3 DUP10 ADD PUSH2 0x1AC2 JUMP JUMPDEST SWAP6 POP POP PUSH1 0x20 PUSH2 0x200E DUP9 DUP3 DUP10 ADD PUSH2 0x1AC2 JUMP JUMPDEST SWAP5 POP POP PUSH1 0x40 DUP7 ADD CALLDATALOAD PUSH8 0xFFFFFFFFFFFFFFFF DUP2 GT ISZERO PUSH2 0x202F JUMPI PUSH2 0x202E PUSH2 0x1A74 JUMP JUMPDEST JUMPDEST PUSH2 0x203B DUP9 DUP3 DUP10 ADD PUSH2 0x1EF0 JUMP JUMPDEST SWAP4 POP POP PUSH1 0x60 DUP7 ADD CALLDATALOAD PUSH8 0xFFFFFFFFFFFFFFFF DUP2 GT ISZERO PUSH2 0x205C JUMPI PUSH2 0x205B PUSH2 0x1A74 JUMP JUMPDEST JUMPDEST PUSH2 0x2068 DUP9 DUP3 DUP10 ADD PUSH2 0x1EF0 JUMP JUMPDEST SWAP3 POP POP PUSH1 0x80 DUP7 ADD CALLDATALOAD PUSH8 0xFFFFFFFFFFFFFFFF DUP2 GT ISZERO PUSH2 0x2089 JUMPI PUSH2 0x2088 PUSH2 0x1A74 JUMP JUMPDEST JUMPDEST PUSH2 0x2095 DUP9 DUP3 DUP10 ADD PUSH2 0x1FA5 JUMP JUMPDEST SWAP2 POP POP SWAP3 SWAP6 POP SWAP3 SWAP6 SWAP1 SWAP4 POP JUMP JUMPDEST PUSH1 0x0 PUSH8 0xFFFFFFFFFFFFFFFF DUP3 GT ISZERO PUSH2 0x20BD JUMPI PUSH2 0x20BC PUSH2 0x1DDB JUMP JUMPDEST JUMPDEST PUSH1 0x20 DUP3 MUL SWAP1 POP PUSH1 0x20 DUP2 ADD SWAP1 POP SWAP2 SWAP1 POP JUMP JUMPDEST PUSH1 0x0 PUSH2 0x20E1 PUSH2 0x20DC DUP5 PUSH2 0x20A2 JUMP JUMPDEST PUSH2 0x1E3B JUMP JUMPDEST SWAP1 POP DUP1 DUP4 DUP3 MSTORE PUSH1 0x20 DUP3 ADD SWAP1 POP PUSH1 0x20 DUP5 MUL DUP4 ADD DUP6 DUP2 GT ISZERO PUSH2 0x2104 JUMPI PUSH2 0x2103 PUSH2 0x1E82 JUMP JUMPDEST JUMPDEST DUP4 JUMPDEST DUP2 DUP2 LT ISZERO PUSH2 0x212D JUMPI DUP1 PUSH2 0x2119 DUP9 DUP3 PUSH2 0x1AC2 JUMP JUMPDEST DUP5 MSTORE PUSH1 0x20 DUP5 ADD SWAP4 POP POP PUSH1 0x20 DUP2 ADD SWAP1 POP PUSH2 0x2106 JUMP JUMPDEST POP POP POP SWAP4 SWAP3 POP POP POP JUMP JUMPDEST PUSH1 0x0 DUP3 PUSH1 0x1F DUP4 ADD SLT PUSH2 0x214C JUMPI PUSH2 0x214B PUSH2 0x1DD6 JUMP JUMPDEST JUMPDEST DUP2 CALLDATALOAD PUSH2 0x215C DUP5 DUP3 PUSH1 0x20 DUP7 ADD PUSH2 0x20CE JUMP JUMPDEST SWAP2 POP POP SWAP3 SWAP2 POP POP JUMP JUMPDEST PUSH1 0x0 DUP1 PUSH1 0x40 DUP4 DUP6 SUB SLT ISZERO PUSH2 0x217C JUMPI PUSH2 0x217B PUSH2 0x1A6F JUMP JUMPDEST JUMPDEST PUSH1 0x0 DUP4 ADD CALLDATALOAD PUSH8 0xFFFFFFFFFFFFFFFF DUP2 GT ISZERO PUSH2 0x219A JUMPI PUSH2 0x2199 PUSH2 0x1A74 JUMP JUMPDEST JUMPDEST PUSH2 0x21A6 DUP6 DUP3 DUP7 ADD PUSH2 0x2137 JUMP JUMPDEST SWAP3 POP POP PUSH1 0x20 DUP4 ADD CALLDATALOAD PUSH8 0xFFFFFFFFFFFFFFFF DUP2 GT ISZERO PUSH2 0x21C7 JUMPI PUSH2 0x21C6 PUSH2 0x1A74 JUMP JUMPDEST JUMPDEST PUSH2 0x21D3 DUP6 DUP3 DUP7 ADD PUSH2 0x1EF0 JUMP JUMPDEST SWAP2 POP POP SWAP3 POP SWAP3 SWAP1 POP JUMP JUMPDEST PUSH1 0x0 DUP2 MLOAD SWAP1 POP SWAP2 SWAP1 POP JUMP JUMPDEST PUSH1 0x0 DUP3 DUP3 MSTORE PUSH1 0x20 DUP3 ADD SWAP1 POP SWAP3 SWAP2 POP POP JUMP JUMPDEST PUSH1 0x0 DUP2 SWAP1 POP PUSH1 0x20 DUP3 ADD SWAP1 POP SWAP2 SWAP1 POP JUMP JUMPDEST PUSH2 0x2212 DUP2 PUSH2 0x1AD7 JUMP JUMPDEST DUP3 MSTORE POP POP JUMP JUMPDEST PUSH1 0x0 PUSH2 0x2224 DUP4 DUP4 PUSH2 0x2209 JUMP JUMPDEST PUSH1 0x20 DUP4 ADD SWAP1 POP SWAP3 SWAP2 POP POP JUMP JUMPDEST PUSH1 0x0 PUSH1 0x20 DUP3 ADD SWAP1 POP SWAP2 SWAP1 POP JUMP JUMPDEST PUSH1 0x0 PUSH2 0x2248 DUP3 PUSH2 0x21DD JUMP JUMPDEST PUSH2 0x2252 DUP2 DUP6 PUSH2 0x21E8 JUMP JUMPDEST SWAP4 POP PUSH2 0x225D DUP4 PUSH2 0x21F9 JUMP JUMPDEST DUP1 PUSH1 0x0 JUMPDEST DUP4 DUP2 LT ISZERO PUSH2 0x228E JUMPI DUP2 MLOAD PUSH2 0x2275 DUP9 DUP3 PUSH2 0x2218 JUMP JUMPDEST SWAP8 POP PUSH2 0x2280 DUP4 PUSH2 0x2230 JUMP JUMPDEST SWAP3 POP POP PUSH1 0x1 DUP2 ADD SWAP1 POP PUSH2 0x2261 JUMP JUMPDEST POP DUP6 SWAP4 POP POP POP POP SWAP3 SWAP2 POP POP JUMP JUMPDEST PUSH1 0x0 PUSH1 0x20 DUP3 ADD SWAP1 POP DUP2 DUP2 SUB PUSH1 0x0 DUP4 ADD MSTORE PUSH2 0x22B5 DUP2 DUP5 PUSH2 0x223D JUMP JUMPDEST SWAP1 POP SWAP3 SWAP2 POP POP JUMP JUMPDEST PUSH2 0x22C6 DUP2 PUSH2 0x1D11 JUMP JUMPDEST DUP3 MSTORE POP POP JUMP JUMPDEST PUSH32 0x4E487B7100000000000000000000000000000000000000000000000000000000 PUSH1 0x0 MSTORE PUSH1 0x21 PUSH1 0x4 MSTORE PUSH1 0x24 PUSH1 0x0 REVERT JUMPDEST PUSH1 0x3 DUP2 LT PUSH2 0x230C JUMPI PUSH2 0x230B PUSH2 0x22CC JUMP JUMPDEST JUMPDEST POP JUMP JUMPDEST PUSH1 0x0 DUP2 SWAP1 POP PUSH2 0x231D DUP3 PUSH2 0x22FB JUMP JUMPDEST SWAP2 SWAP1 POP JUMP JUMPDEST PUSH1 0x0 PUSH2 0x232D DUP3 PUSH2 0x230F JUMP JUMPDEST SWAP1 POP SWAP2 SWAP1 POP JUMP JUMPDEST PUSH2 0x233D DUP2 PUSH2 0x2322 JUMP JUMPDEST DUP3 MSTORE POP POP JUMP JUMPDEST PUSH1 0x0 PUSH1 0x60 DUP3 ADD SWAP1 POP PUSH2 0x2358 PUSH1 0x0 DUP4 ADD DUP7 PUSH2 0x22BD JUMP JUMPDEST PUSH2 0x2365 PUSH1 0x20 DUP4 ADD DUP6 PUSH2 0x22BD JUMP JUMPDEST PUSH2 0x2372 PUSH1 0x40 DUP4 ADD DUP5 PUSH2 0x2334 JUMP JUMPDEST SWAP5 SWAP4 POP POP POP POP JUMP JUMPDEST PUSH2 0x2383 DUP2 PUSH2 0x1A99 JUMP JUMPDEST DUP3 MSTORE POP POP JUMP JUMPDEST PUSH1 0x0 PUSH1 0x20 DUP3 ADD SWAP1 POP PUSH2 0x239E PUSH1 0x0 DUP4 ADD DUP5 PUSH2 0x237A JUMP JUMPDEST SWAP3 SWAP2 POP POP JUMP JUMPDEST PUSH2 0x23AD DUP2 PUSH2 0x1BFC JUMP JUMPDEST DUP2 EQ PUSH2 0x23B8 JUMPI PUSH1 0x0 DUP1 REVERT JUMPDEST POP JUMP JUMPDEST PUSH1 0x0 DUP2 CALLDATALOAD SWAP1 POP PUSH2 0x23CA DUP2 PUSH2 0x23A4 JUMP JUMPDEST SWAP3 SWAP2 POP POP JUMP JUMPDEST PUSH1 0x0 DUP1 PUSH1 0x40 DUP4 DUP6 SUB SLT ISZERO PUSH2 0x23E7 JUMPI PUSH2 0x23E6 PUSH2 0x1A6F JUMP JUMPDEST JUMPDEST PUSH1 0x0 PUSH2 0x23F5 DUP6 DUP3 DUP7 ADD PUSH2 0x1AC2 JUMP JUMPDEST SWAP3 POP POP PUSH1 0x20 PUSH2 0x2406 DUP6 DUP3 DUP7 ADD PUSH2 0x23BB JUMP JUMPDEST SWAP2 POP POP SWAP3 POP SWAP3 SWAP1 POP JUMP JUMPDEST PUSH1 0x0 PUSH1 0x20 DUP3 DUP5 SUB SLT ISZERO PUSH2 0x2426 JUMPI PUSH2 0x2425 PUSH2 0x1A6F JUMP JUMPDEST JUMPDEST PUSH1 0x0 PUSH2 0x2434 DUP5 DUP3 DUP6 ADD PUSH2 0x1AC2 JUMP JUMPDEST SWAP2 POP POP SWAP3 SWAP2 POP POP JUMP JUMPDEST PUSH1 0x0 DUP1 PUSH1 0x40 DUP4 DUP6 SUB SLT ISZERO PUSH2 0x2454 JUMPI PUSH2 0x2453 PUSH2 0x1A6F JUMP JUMPDEST JUMPDEST PUSH1 0x0 PUSH2 0x2462 DUP6 DUP3 DUP7 ADD PUSH2 0x1AC2 JUMP JUMPDEST SWAP3 POP POP PUSH1 0x20 PUSH2 0x2473 DUP6 DUP3 DUP7 ADD PUSH2 0x1AC2 JUMP JUMPDEST SWAP2 POP POP SWAP3 POP SWAP3 SWAP1 POP JUMP JUMPDEST PUSH1 0x0 DUP1 PUSH1 0x0 DUP1 PUSH1 0x0 PUSH1 0xA0 DUP7 DUP9 SUB SLT ISZERO PUSH2 0x2499 JUMPI PUSH2 0x2498 PUSH2 0x1A6F JUMP JUMPDEST JUMPDEST PUSH1 0x0 PUSH2 0x24A7 DUP9 DUP3 DUP10 ADD PUSH2 0x1AC2 JUMP JUMPDEST SWAP6 POP POP PUSH1 0x20 PUSH2 0x24B8 DUP9 DUP3 DUP10 ADD PUSH2 0x1AC2 JUMP JUMPDEST SWAP5 POP POP PUSH1 0x40 PUSH2 0x24C9 DUP9 DUP3 DUP10 ADD PUSH2 0x1AF8 JUMP JUMPDEST SWAP4 POP POP PUSH1 0x60 PUSH2 0x24DA DUP9 DUP3 DUP10 ADD PUSH2 0x1AF8 JUMP JUMPDEST SWAP3 POP POP PUSH1 0x80 DUP7 ADD CALLDATALOAD PUSH8 0xFFFFFFFFFFFFFFFF DUP2 GT ISZERO PUSH2 0x24FB JUMPI PUSH2 0x24FA PUSH2 0x1A74 JUMP JUMPDEST JUMPDEST PUSH2 0x2507 DUP9 DUP3 DUP10 ADD PUSH2 0x1FA5 JUMP JUMPDEST SWAP2 POP POP SWAP3 SWAP6 POP SWAP3 SWAP6 SWAP1 SWAP4 POP JUMP JUMPDEST PUSH32 0x4E487B7100000000000000000000000000000000000000000000000000000000 PUSH1 0x0 MSTORE PUSH1 0x22 PUSH1 0x4 MSTORE PUSH1 0x24 PUSH1 0x0 REVERT JUMPDEST PUSH1 0x0 PUSH1 0x2 DUP3 DIV SWAP1 POP PUSH1 0x1 DUP3 AND DUP1 PUSH2 0x255B JUMPI PUSH1 0x7F DUP3 AND SWAP2 POP JUMPDEST PUSH1 0x20 DUP3 LT DUP2 SUB PUSH2 0x256E JUMPI PUSH2 0x256D PUSH2 0x2514 JUMP JUMPDEST JUMPDEST POP SWAP2 SWAP1 POP JUMP JUMPDEST PUSH32 0x4578506F70756C757343617264733A204F6E6C79204162696C69747920302C31 PUSH1 0x0 DUP3 ADD MSTORE PUSH32 0x20616E64203220616C6C6F7765642E0000000000000000000000000000000000 PUSH1 0x20 DUP3 ADD MSTORE POP JUMP JUMPDEST PUSH1 0x0 PUSH2 0x25D0 PUSH1 0x2F DUP4 PUSH2 0x1C6A JUMP JUMPDEST SWAP2 POP PUSH2 0x25DB DUP3 PUSH2 0x2574 JUMP JUMPDEST PUSH1 0x40 DUP3 ADD SWAP1 POP SWAP2 SWAP1 POP JUMP JUMPDEST PUSH1 0x0 PUSH1 0x20 DUP3 ADD SWAP1 POP DUP2 DUP2 SUB PUSH1 0x0 DUP4 ADD MSTORE PUSH2 0x25FF DUP2 PUSH2 0x25C3 JUMP JUMPDEST SWAP1 POP SWAP2 SWAP1 POP JUMP JUMPDEST PUSH32 0x4E487B7100000000000000000000000000000000000000000000000000000000 PUSH1 0x0 MSTORE PUSH1 0x11 PUSH1 0x4 MSTORE PUSH1 0x24 PUSH1 0x0 REVERT JUMPDEST PUSH1 0x0 PUSH2 0x2640 DUP3 PUSH2 0x1AD7 JUMP JUMPDEST SWAP2 POP PUSH32 0xFFFFFFFFFFFFFFFFFFFFFFFFFFFFFFFFFFFFFFFFFFFFFFFFFFFFFFFFFFFFFFFF DUP3 SUB PUSH2 0x2672 JUMPI PUSH2 0x2671 PUSH2 0x2606 JUMP JUMPDEST JUMPDEST PUSH1 0x1 DUP3 ADD SWAP1 POP SWAP2 SWAP1 POP JUMP JUMPDEST PUSH1 0x0 PUSH1 0x40 DUP3 ADD SWAP1 POP PUSH2 0x2692 PUSH1 0x0 DUP4 ADD DUP6 PUSH2 0x237A JUMP JUMPDEST PUSH2 0x269F PUSH1 0x20 DUP4 ADD DUP5 PUSH2 0x237A JUMP JUMPDEST SWAP4 SWAP3 POP POP POP JUMP JUMPDEST PUSH1 0x0 PUSH1 0x40 DUP3 ADD SWAP1 POP PUSH2 0x26BB PUSH1 0x0 DUP4 ADD DUP6 PUSH2 0x1B4D JUMP JUMPDEST PUSH2 0x26C8 PUSH1 0x20 DUP4 ADD DUP5 PUSH2 0x1B4D JUMP JUMPDEST SWAP4 SWAP3 POP POP POP JUMP JUMPDEST PUSH32 0x4E487B7100000000000000000000000000000000000000000000000000000000 PUSH1 0x0 MSTORE PUSH1 0x32 PUSH1 0x4 MSTORE PUSH1 0x24 PUSH1 0x0 REVERT JUMPDEST PUSH32 0x4578506F70756C757343617264733A20596F7520646F6E277420686176652061 PUSH1 0x0 DUP3 ADD MSTORE PUSH32 0x6363657373206F662074686520636172642E0000000000000000000000000000 PUSH1 0x20 DUP3 ADD MSTORE POP JUMP JUMPDEST PUSH1 0x0 PUSH2 0x275A PUSH1 0x32 DUP4 PUSH2 0x1C6A JUMP JUMPDEST SWAP2 POP PUSH2 0x2765 DUP3 PUSH2 0x26FE JUMP JUMPDEST PUSH1 0x40 DUP3 ADD SWAP1 POP SWAP2 SWAP1 POP JUMP JUMPDEST PUSH1 0x0 PUSH1 0x20 DUP3 ADD SWAP1 POP DUP2 DUP2 SUB PUSH1 0x0 DUP4 ADD MSTORE PUSH2 0x2789 DUP2 PUSH2 0x274D JUMP JUMPDEST SWAP1 POP SWAP2 SWAP1 POP JUMP JUMPDEST PUSH1 0x0 PUSH1 0x80 DUP3 ADD SWAP1 POP PUSH2 0x27A5 PUSH1 0x0 DUP4 ADD DUP8 PUSH2 0x237A JUMP JUMPDEST PUSH2 0x27B2 PUSH1 0x20 DUP4 ADD DUP7 PUSH2 0x1B4D JUMP JUMPDEST PUSH2 0x27BF PUSH1 0x40 DUP4 ADD DUP6 PUSH2 0x1B4D JUMP JUMPDEST PUSH2 0x27CC PUSH1 0x60 DUP4 ADD DUP5 PUSH2 0x1B4D JUMP JUMPDEST SWAP6 SWAP5 POP POP POP POP POP JUMP JUMPDEST PUSH1 0x0 PUSH2 0x27E0 DUP3 PUSH2 0x1AD7 JUMP JUMPDEST SWAP2 POP PUSH2 0x27EB DUP4 PUSH2 0x1AD7 JUMP JUMPDEST SWAP3 POP DUP3 DUP3 ADD SWAP1 POP DUP1 DUP3 GT ISZERO PUSH2 0x2803 JUMPI PUSH2 0x2802 PUSH2 0x2606 JUMP JUMPDEST JUMPDEST SWAP3 SWAP2 POP POP JUMP JUMPDEST PUSH1 0x0 PUSH1 0x40 DUP3 ADD SWAP1 POP DUP2 DUP2 SUB PUSH1 0x0 DUP4 ADD MSTORE PUSH2 0x2823 DUP2 DUP6 PUSH2 0x223D JUMP JUMPDEST SWAP1 POP DUP2 DUP2 SUB PUSH1 0x20 DUP4 ADD MSTORE PUSH2 0x2837 DUP2 DUP5 PUSH2 0x223D JUMP JUMPDEST SWAP1 POP SWAP4 SWAP3 POP POP POP JUMP JUMPDEST PUSH1 0x0 DUP2 MLOAD SWAP1 POP SWAP2 SWAP1 POP JUMP JUMPDEST PUSH1 0x0 DUP3 DUP3 MSTORE PUSH1 0x20 DUP3 ADD SWAP1 POP SWAP3 SWAP2 POP POP JUMP JUMPDEST PUSH1 0x0 PUSH2 0x2867 DUP3 PUSH2 0x2840 JUMP JUMPDEST PUSH2 0x2871 DUP2 DUP6 PUSH2 0x284B JUMP JUMPDEST SWAP4 POP PUSH2 0x2881 DUP2 DUP6 PUSH1 0x20 DUP7 ADD PUSH2 0x1C7B JUMP JUMPDEST PUSH2 0x288A DUP2 PUSH2 0x1CA5 JUMP JUMPDEST DUP5 ADD SWAP2 POP POP SWAP3 SWAP2 POP POP JUMP JUMPDEST PUSH1 0x0 PUSH1 0xA0 DUP3 ADD SWAP1 POP PUSH2 0x28AA PUSH1 0x0 DUP4 ADD DUP9 PUSH2 0x237A JUMP JUMPDEST PUSH2 0x28B7 PUSH1 0x20 DUP4 ADD DUP8 PUSH2 0x237A JUMP JUMPDEST PUSH2 0x28C4 PUSH1 0x40 DUP4 ADD DUP7 PUSH2 0x1B4D JUMP JUMPDEST PUSH2 0x28D1 PUSH1 0x60 DUP4 ADD DUP6 PUSH2 0x1B4D JUMP JUMPDEST DUP2 DUP2 SUB PUSH1 0x80 DUP4 ADD MSTORE PUSH2 0x28E3 DUP2 DUP5 PUSH2 0x285C JUMP JUMPDEST SWAP1 POP SWAP7 SWAP6 POP POP POP POP POP POP JUMP JUMPDEST PUSH1 0x0 DUP2 MLOAD SWAP1 POP PUSH2 0x28FE DUP2 PUSH2 0x1BA3 JUMP JUMPDEST SWAP3 SWAP2 POP POP JUMP JUMPDEST PUSH1 0x0 PUSH1 0x20 DUP3 DUP5 SUB SLT ISZERO PUSH2 0x291A JUMPI PUSH2 0x2919 PUSH2 0x1A6F JUMP JUMPDEST JUMPDEST PUSH1 0x0 PUSH2 0x2928 DUP5 DUP3 DUP6 ADD PUSH2 0x28EF JUMP JUMPDEST SWAP2 POP POP SWAP3 SWAP2 POP POP JUMP JUMPDEST PUSH1 0x0 PUSH1 0xA0 DUP3 ADD SWAP1 POP PUSH2 0x2946 PUSH1 0x0 DUP4 ADD DUP9 PUSH2 0x237A JUMP JUMPDEST PUSH2 0x2953 PUSH1 0x20 DUP4 ADD DUP8 PUSH2 0x237A JUMP JUMPDEST DUP2 DUP2 SUB PUSH1 0x40 DUP4 ADD MSTORE PUSH2 0x2965 DUP2 DUP7 PUSH2 0x223D JUMP JUMPDEST SWAP1 POP DUP2 DUP2 SUB PUSH1 0x60 DUP4 ADD MSTORE PUSH2 0x2979 DUP2 DUP6 PUSH2 0x223D JUMP JUMPDEST SWAP1 POP DUP2 DUP2 SUB PUSH1 0x80 DUP4 ADD MSTORE PUSH2 0x298D DUP2 DUP5 PUSH2 0x285C JUMP JUMPDEST SWAP1 POP SWAP7 SWAP6 POP POP POP POP POP POP JUMP INVALID LOG2 PUSH5 0x6970667358 0x22 SLT KECCAK256 PUSH8 0xC0B395594AE5FD3E SWAP8 SWAP12 PUSH24 0xD6D6807DDBAEE034F4BE048A3E111DF49AD405664736F6C PUSH4 0x43000814 STOP CALLER "},"methodIdentifiers":{"approveAddressForLookup(address)":"bcb3b244","approvedAddressesForLookup(address)":"a2fda771","balanceOf(address,uint256)":"00fdd58e","balanceOfBatch(address[],uint256[])":"4e1273f4","cards(uint256)":"8dc10768","getCardDetails(uint256)":"60fe9952","idCoutner()":"9d745126","isApprovedForAll(address,address)":"e985e9c5","mintCard(address,uint8,uint8,uint8)":"299ac425","owner()":"8da5cb5b","renounceOwnership()":"715018a6","safeBatchTransferFrom(address,address,uint256[],uint256[],bytes)":"2eb2c2d6","safeTransferFrom(address,address,uint256,uint256,bytes)":"f242432a","setApprovalForAll(address,bool)":"a22cb465","supportsInterface(bytes4)":"01ffc9a7","transferOwnership(address)":"f2fde38b","uri(uint256)":"0e89341c"}}}}}