{"contracts/ExPopulusCardGameLogic.sol":{"ExPopulusCardGameLogic":{"abi":[{"inputs":[],"stateMutability":"nonpayable","type":"constructor"},{"inputs":[],"name":"battle","outputs":[],"stateMutability":"nonpayable","type":"function"}],"evm":{"bytecode":{"linkReferences":{},"object":"6080604052348015600f57600080fd5b50606d80601d6000396000f3fe6080604052348015600f57600080fd5b506004361060285760003560e01c806344e4454514602d575b600080fd5b60336035565b005b56fea2646970667358221220d787c3a7054724283f0247d2ec95b737fb2e519c30d745171e807c74b0f6427c64736f6c63430008140033","opcodes":"PUSH1 0x80 PUSH1 0x40 MSTORE CALLVALUE DUP1 ISZERO PUSH1 0xF JUMPI PUSH1 0x0 DUP1 REVERT JUMPDEST POP PUSH1 0x6D DUP1 PUSH1 0x1D PUSH1 0x0 CODECOPY PUSH1 0x0 RETURN INVALID PUSH1 0x80 PUSH1 0x40 MSTORE CALLVALUE DUP1 ISZERO PUSH1 0xF JUMPI PUSH1 0x0 DUP1 REVERT JUMPDEST POP PUSH1 0x4 CALLDATASIZE LT PUSH1 0x28 JUMPI PUSH1 0x0 CALLDATALOAD PUSH1 0xE0 SHR DUP1 PUSH4 0x44E44545 EQ PUSH1 0x2D JUMPI JUMPDEST PUSH1 0x0 DUP1 REVERT JUMPDEST PUSH1 0x33 PUSH1 0x35 JUMP JUMPDEST STOP JUMPDEST JUMP INVALID LOG2 PUSH5 0x6970667358 0x22 SLT KECCAK256 0xD7 DUP8 0xC3 0xA7 SDIV SELFBALANCE 0x24 0x28 EXTCODEHASH MUL SELFBALANCE 0xD2 0xEC SWAP6 0xB7 CALLDATACOPY 0xFB 0x2E MLOAD SWAP13 ADDRESS 0xD7 GASLIMIT OR 0x1E DUP1 PUSH29 0x74B0F6427C64736F6C6343000814003300000000000000000000000000 "},"methodIdentifiers":{"battle()":"44e44545"}}}}}