{
  "_format": "hh-sol-artifact-1",
  "contractName": "ExPopulusCards",
  "sourceName": "contracts/ExPopulusCards.sol",
  "abi": [
    {
      "inputs": [
        {
          "internalType": "string",
          "name": "_uri",
          "type": "string"
        }
      ],
      "stateMutability": "nonpayable",
      "type": "constructor"
    },
    {
      "inputs": [
        {
          "internalType": "address",
          "name": "sender",
          "type": "address"
        },
        {
          "internalType": "uint256",
          "name": "balance",
          "type": "uint256"
        },
        {
          "internalType": "uint256",
          "name": "needed",
          "type": "uint256"
        },
        {
          "internalType": "uint256",
          "name": "tokenId",
          "type": "uint256"
        }
      ],
      "name": "ERC1155InsufficientBalance",
      "type": "error"
    },
    {
      "inputs": [
        {
          "internalType": "address",
          "name": "approver",
          "type": "address"
        }
      ],
      "name": "ERC1155InvalidApprover",
      "type": "error"
    },
    {
      "inputs": [
        {
          "internalType": "uint256",
          "name": "idsLength",
          "type": "uint256"
        },
        {
          "internalType": "uint256",
          "name": "valuesLength",
          "type": "uint256"
        }
      ],
      "name": "ERC1155InvalidArrayLength",
      "type": "error"
    },
    {
      "inputs": [
        {
          "internalType": "address",
          "name": "operator",
          "type": "address"
        }
      ],
      "name": "ERC1155InvalidOperator",
      "type": "error"
    },
    {
      "inputs": [
        {
          "internalType": "address",
          "name": "receiver",
          "type": "address"
        }
      ],
      "name": "ERC1155InvalidReceiver",
      "type": "error"
    },
    {
      "inputs": [
        {
          "internalType": "address",
          "name": "sender",
          "type": "address"
        }
      ],
      "name": "ERC1155InvalidSender",
      "type": "error"
    },
    {
      "inputs": [
        {
          "internalType": "address",
          "name": "operator",
          "type": "address"
        },
        {
          "internalType": "address",
          "name": "owner",
          "type": "address"
        }
      ],
      "name": "ERC1155MissingApprovalForAll",
      "type": "error"
    },
    {
      "inputs": [
        {
          "internalType": "address",
          "name": "owner",
          "type": "address"
        }
      ],
      "name": "OwnableInvalidOwner",
      "type": "error"
    },
    {
      "inputs": [
        {
          "internalType": "address",
          "name": "account",
          "type": "address"
        }
      ],
      "name": "OwnableUnauthorizedAccount",
      "type": "error"
    },
    {
      "anonymous": false,
      "inputs": [
        {
          "indexed": true,
          "internalType": "address",
          "name": "account",
          "type": "address"
        },
        {
          "indexed": true,
          "internalType": "address",
          "name": "operator",
          "type": "address"
        },
        {
          "indexed": false,
          "internalType": "bool",
          "name": "approved",
          "type": "bool"
        }
      ],
      "name": "ApprovalForAll",
      "type": "event"
    },
    {
      "anonymous": false,
      "inputs": [
        {
          "indexed": true,
          "internalType": "address",
          "name": "previousOwner",
          "type": "address"
        },
        {
          "indexed": true,
          "internalType": "address",
          "name": "newOwner",
          "type": "address"
        }
      ],
      "name": "OwnershipTransferred",
      "type": "event"
    },
    {
      "anonymous": false,
      "inputs": [
        {
          "indexed": true,
          "internalType": "address",
          "name": "operator",
          "type": "address"
        },
        {
          "indexed": true,
          "internalType": "address",
          "name": "from",
          "type": "address"
        },
        {
          "indexed": true,
          "internalType": "address",
          "name": "to",
          "type": "address"
        },
        {
          "indexed": false,
          "internalType": "uint256[]",
          "name": "ids",
          "type": "uint256[]"
        },
        {
          "indexed": false,
          "internalType": "uint256[]",
          "name": "values",
          "type": "uint256[]"
        }
      ],
      "name": "TransferBatch",
      "type": "event"
    },
    {
      "anonymous": false,
      "inputs": [
        {
          "indexed": true,
          "internalType": "address",
          "name": "operator",
          "type": "address"
        },
        {
          "indexed": true,
          "internalType": "address",
          "name": "from",
          "type": "address"
        },
        {
          "indexed": true,
          "internalType": "address",
          "name": "to",
          "type": "address"
        },
        {
          "indexed": false,
          "internalType": "uint256",
          "name": "id",
          "type": "uint256"
        },
        {
          "indexed": false,
          "internalType": "uint256",
          "name": "value",
          "type": "uint256"
        }
      ],
      "name": "TransferSingle",
      "type": "event"
    },
    {
      "anonymous": false,
      "inputs": [
        {
          "indexed": false,
          "internalType": "string",
          "name": "value",
          "type": "string"
        },
        {
          "indexed": true,
          "internalType": "uint256",
          "name": "id",
          "type": "uint256"
        }
      ],
      "name": "URI",
      "type": "event"
    },
    {
      "inputs": [
        {
          "internalType": "address",
          "name": "_to",
          "type": "address"
        }
      ],
      "name": "approveAddressForLookup",
      "outputs": [],
      "stateMutability": "nonpayable",
      "type": "function"
    },
    {
      "inputs": [
        {
          "internalType": "address",
          "name": "",
          "type": "address"
        }
      ],
      "name": "approvedAddressesForLookup",
      "outputs": [
        {
          "internalType": "bool",
          "name": "",
          "type": "bool"
        }
      ],
      "stateMutability": "view",
      "type": "function"
    },
    {
      "inputs": [
        {
          "internalType": "address",
          "name": "account",
          "type": "address"
        },
        {
          "internalType": "uint256",
          "name": "id",
          "type": "uint256"
        }
      ],
      "name": "balanceOf",
      "outputs": [
        {
          "internalType": "uint256",
          "name": "",
          "type": "uint256"
        }
      ],
      "stateMutability": "view",
      "type": "function"
    },
    {
      "inputs": [
        {
          "internalType": "address[]",
          "name": "accounts",
          "type": "address[]"
        },
        {
          "internalType": "uint256[]",
          "name": "ids",
          "type": "uint256[]"
        }
      ],
      "name": "balanceOfBatch",
      "outputs": [
        {
          "internalType": "uint256[]",
          "name": "",
          "type": "uint256[]"
        }
      ],
      "stateMutability": "view",
      "type": "function"
    },
    {
      "inputs": [
        {
          "internalType": "uint256",
          "name": "",
          "type": "uint256"
        }
      ],
      "name": "cards",
      "outputs": [
        {
          "internalType": "uint8",
          "name": "attack",
          "type": "uint8"
        },
        {
          "internalType": "uint8",
          "name": "health",
          "type": "uint8"
        },
        {
          "internalType": "enum ExPopulusCards.Ability",
          "name": "ability",
          "type": "uint8"
        }
      ],
      "stateMutability": "view",
      "type": "function"
    },
    {
      "inputs": [
        {
          "internalType": "uint256",
          "name": "_cardId",
          "type": "uint256"
        }
      ],
      "name": "getCardDetails",
      "outputs": [
        {
          "internalType": "uint8",
          "name": "attack",
          "type": "uint8"
        },
        {
          "internalType": "uint8",
          "name": "health",
          "type": "uint8"
        },
        {
          "internalType": "enum ExPopulusCards.Ability",
          "name": "ability",
          "type": "uint8"
        }
      ],
      "stateMutability": "view",
      "type": "function"
    },
    {
      "inputs": [],
      "name": "idCoutner",
      "outputs": [
        {
          "internalType": "uint256",
          "name": "",
          "type": "uint256"
        }
      ],
      "stateMutability": "view",
      "type": "function"
    },
    {
      "inputs": [
        {
          "internalType": "address",
          "name": "account",
          "type": "address"
        },
        {
          "internalType": "address",
          "name": "operator",
          "type": "address"
        }
      ],
      "name": "isApprovedForAll",
      "outputs": [
        {
          "internalType": "bool",
          "name": "",
          "type": "bool"
        }
      ],
      "stateMutability": "view",
      "type": "function"
    },
    {
      "inputs": [
        {
          "internalType": "address",
          "name": "_to",
          "type": "address"
        },
        {
          "internalType": "uint8",
          "name": "_attack",
          "type": "uint8"
        },
        {
          "internalType": "uint8",
          "name": "_health",
          "type": "uint8"
        },
        {
          "internalType": "enum ExPopulusCards.Ability",
          "name": "_ability",
          "type": "uint8"
        }
      ],
      "name": "mintCard",
      "outputs": [],
      "stateMutability": "nonpayable",
      "type": "function"
    },
    {
      "inputs": [],
      "name": "owner",
      "outputs": [
        {
          "internalType": "address",
          "name": "",
          "type": "address"
        }
      ],
      "stateMutability": "view",
      "type": "function"
    },
    {
      "inputs": [],
      "name": "renounceOwnership",
      "outputs": [],
      "stateMutability": "nonpayable",
      "type": "function"
    },
    {
      "inputs": [
        {
          "internalType": "address",
          "name": "from",
          "type": "address"
        },
        {
          "internalType": "address",
          "name": "to",
          "type": "address"
        },
        {
          "internalType": "uint256[]",
          "name": "ids",
          "type": "uint256[]"
        },
        {
          "internalType": "uint256[]",
          "name": "values",
          "type": "uint256[]"
        },
        {
          "internalType": "bytes",
          "name": "data",
          "type": "bytes"
        }
      ],
      "name": "safeBatchTransferFrom",
      "outputs": [],
      "stateMutability": "nonpayable",
      "type": "function"
    },
    {
      "inputs": [
        {
          "internalType": "address",
          "name": "from",
          "type": "address"
        },
        {
          "internalType": "address",
          "name": "to",
          "type": "address"
        },
        {
          "internalType": "uint256",
          "name": "id",
          "type": "uint256"
        },
        {
          "internalType": "uint256",
          "name": "value",
          "type": "uint256"
        },
        {
          "internalType": "bytes",
          "name": "data",
          "type": "bytes"
        }
      ],
      "name": "safeTransferFrom",
      "outputs": [],
      "stateMutability": "nonpayable",
      "type": "function"
    },
    {
      "inputs": [
        {
          "internalType": "address",
          "name": "operator",
          "type": "address"
        },
        {
          "internalType": "bool",
          "name": "approved",
          "type": "bool"
        }
      ],
      "name": "setApprovalForAll",
      "outputs": [],
      "stateMutability": "nonpayable",
      "type": "function"
    },
    {
      "inputs": [
        {
          "internalType": "bytes4",
          "name": "interfaceId",
          "type": "bytes4"
        }
      ],
      "name": "supportsInterface",
      "outputs": [
        {
          "internalType": "bool",
          "name": "",
          "type": "bool"
        }
      ],
      "stateMutability": "view",
      "type": "function"
    },
    {
      "inputs": [
        {
          "internalType": "address",
          "name": "newOwner",
          "type": "address"
        }
      ],
      "name": "transferOwnership",
      "outputs": [],
      "stateMutability": "nonpayable",
      "type": "function"
    },
    {
      "inputs": [
        {
          "internalType": "uint256",
          "name": "",
          "type": "uint256"
        }
      ],
      "name": "uri",
      "outputs": [
        {
          "internalType": "string",
          "name": "",
          "type": "string"
        }
      ],
      "stateMutability": "view",
      "type": "function"
    }
  ],
  "bytecode": "0x60806040523480156200001157600080fd5b50604051620031133803806200311383398181016040528101906200003791906200034f565b33816200004a81620000e160201b60201c565b50600073ffffffffffffffffffffffffffffffffffffffff168173ffffffffffffffffffffffffffffffffffffffff1603620000c05760006040517f1e4fbdf7000000000000000000000000000000000000000000000000000000008152600401620000b79190620003e5565b60405180910390fd5b620000d181620000f660201b60201c565b5060016004819055505062000734565b8060029081620000f291906200064d565b5050565b6000600360009054906101000a900473ffffffffffffffffffffffffffffffffffffffff16905081600360006101000a81548173ffffffffffffffffffffffffffffffffffffffff021916908373ffffffffffffffffffffffffffffffffffffffff1602179055508173ffffffffffffffffffffffffffffffffffffffff168173ffffffffffffffffffffffffffffffffffffffff167f8be0079c531659141344cd1fd0a4f28419497f9722a3daafe3b4186f6b6457e060405160405180910390a35050565b6000604051905090565b600080fd5b600080fd5b600080fd5b600080fd5b6000601f19601f8301169050919050565b7f4e487b7100000000000000000000000000000000000000000000000000000000600052604160045260246000fd5b6200022582620001da565b810181811067ffffffffffffffff82111715620002475762000246620001eb565b5b80604052505050565b60006200025c620001bc565b90506200026a82826200021a565b919050565b600067ffffffffffffffff8211156200028d576200028c620001eb565b5b6200029882620001da565b9050602081019050919050565b60005b83811015620002c5578082015181840152602081019050620002a8565b60008484015250505050565b6000620002e8620002e2846200026f565b62000250565b905082815260208101848484011115620003075762000306620001d5565b5b62000314848285620002a5565b509392505050565b600082601f830112620003345762000333620001d0565b5b815162000346848260208601620002d1565b91505092915050565b600060208284031215620003685762000367620001c6565b5b600082015167ffffffffffffffff811115620003895762000388620001cb565b5b62000397848285016200031c565b91505092915050565b600073ffffffffffffffffffffffffffffffffffffffff82169050919050565b6000620003cd82620003a0565b9050919050565b620003df81620003c0565b82525050565b6000602082019050620003fc6000830184620003d4565b92915050565b600081519050919050565b7f4e487b7100000000000000000000000000000000000000000000000000000000600052602260045260246000fd5b600060028204905060018216806200045557607f821691505b6020821081036200046b576200046a6200040d565b5b50919050565b60008190508160005260206000209050919050565b60006020601f8301049050919050565b600082821b905092915050565b600060088302620004d57fffffffffffffffffffffffffffffffffffffffffffffffffffffffffffffffff8262000496565b620004e1868362000496565b95508019841693508086168417925050509392505050565b6000819050919050565b6000819050919050565b60006200052e620005286200052284620004f9565b62000503565b620004f9565b9050919050565b6000819050919050565b6200054a836200050d565b62000562620005598262000535565b848454620004a3565b825550505050565b600090565b620005796200056a565b620005868184846200053f565b505050565b5b81811015620005ae57620005a26000826200056f565b6001810190506200058c565b5050565b601f821115620005fd57620005c78162000471565b620005d28462000486565b81016020851015620005e2578190505b620005fa620005f18562000486565b8301826200058b565b50505b505050565b600082821c905092915050565b6000620006226000198460080262000602565b1980831691505092915050565b60006200063d83836200060f565b9150826002028217905092915050565b620006588262000402565b67ffffffffffffffff811115620006745762000673620001eb565b5b6200068082546200043c565b6200068d828285620005b2565b600060209050601f831160018114620006c55760008415620006b0578287015190505b620006bc85826200062f565b8655506200072c565b601f198416620006d58662000471565b60005b82811015620006ff57848901518255600182019150602085019450602081019050620006d8565b868310156200071f57848901516200071b601f8916826200060f565b8355505b6001600288020188555050505b505050505050565b6129cf80620007446000396000f3fe608060405234801561001057600080fd5b506004361061010a5760003560e01c80638da5cb5b116100a2578063a2fda77111610071578063a2fda771146102cd578063bcb3b244146102fd578063e985e9c514610319578063f242432a14610349578063f2fde38b146103655761010a565b80638da5cb5b146102435780638dc10768146102615780639d74512614610293578063a22cb465146102b15761010a565b80632eb2c2d6116100de5780632eb2c2d6146101bb5780634e1273f4146101d757806360fe995214610207578063715018a6146102395761010a565b8062fdd58e1461010f57806301ffc9a71461013f5780630e89341c1461016f578063299ac4251461019f575b600080fd5b61012960048036038101906101249190611b0d565b610381565b6040516101369190611b5c565b60405180910390f35b61015960048036038101906101549190611bcf565b6103db565b6040516101669190611c17565b60405180910390f35b61018960048036038101906101849190611c32565b6104bd565b6040516101969190611cef565b60405180910390f35b6101b960048036038101906101b49190611d6f565b610551565b005b6101d560048036038101906101d09190611fd3565b6106aa565b005b6101f160048036038101906101ec9190612165565b610752565b6040516101fe919061229b565b60405180910390f35b610221600480360381019061021c9190611c32565b610861565b60405161023093929190612343565b60405180910390f35b61024161098a565b005b61024b61099e565b6040516102589190612389565b60405180910390f35b61027b60048036038101906102769190611c32565b6109c8565b60405161028a93929190612343565b60405180910390f35b61029b610a19565b6040516102a89190611b5c565b60405180910390f35b6102cb60048036038101906102c691906123d0565b610a1f565b005b6102e760048036038101906102e29190612410565b610a35565b6040516102f49190611c17565b60405180910390f35b61031760048036038101906103129190612410565b610a55565b005b610333600480360381019061032e919061243d565b610ab8565b6040516103409190611c17565b60405180910390f35b610363600480360381019061035e919061247d565b610b4c565b005b61037f600480360381019061037a9190612410565b610bf4565b005b600080600083815260200190815260200160002060008473ffffffffffffffffffffffffffffffffffffffff1673ffffffffffffffffffffffffffffffffffffffff16815260200190815260200160002054905092915050565b60007fd9b67a26000000000000000000000000000000000000000000000000000000007bffffffffffffffffffffffffffffffffffffffffffffffffffffffff1916827bffffffffffffffffffffffffffffffffffffffffffffffffffffffff191614806104a657507f0e89341c000000000000000000000000000000000000000000000000000000007bffffffffffffffffffffffffffffffffffffffffffffffffffffffff1916827bffffffffffffffffffffffffffffffffffffffffffffffffffffffff1916145b806104b657506104b582610c7a565b5b9050919050565b6060600280546104cc90612543565b80601f01602080910402602001604051908101604052809291908181526020018280546104f890612543565b80156105455780601f1061051a57610100808354040283529160200191610545565b820191906000526020600020905b81548152906001019060200180831161052857829003601f168201915b50505050509050919050565b610559610ce4565b600381600281111561056e5761056d6122cc565b5b60ff16106105b1576040517f08c379a00000000000000000000000000000000000000000000000000000000081526004016105a8906125e6565b60405180910390fd5b6105cf84600454600160405180602001604052806000815250610d6b565b60405180606001604052808460ff1681526020018360ff1681526020018260028111156105ff576105fe6122cc565b5b81525060056000600454815260200190815260200160002060008201518160000160006101000a81548160ff021916908360ff16021790555060208201518160000160016101000a81548160ff021916908360ff16021790555060408201518160000160026101000a81548160ff02191690836002811115610684576106836122cc565b5b02179055509050506004600081548092919061069f90612635565b919050555050505050565b60006106b4610e04565b90508073ffffffffffffffffffffffffffffffffffffffff168673ffffffffffffffffffffffffffffffffffffffff16141580156106f957506106f78682610ab8565b155b1561073d5780866040517fe237d92200000000000000000000000000000000000000000000000000000000815260040161073492919061267d565b60405180910390fd5b61074a8686868686610e0c565b505050505050565b6060815183511461079e57815183516040517f5b0599910000000000000000000000000000000000000000000000000000000081526004016107959291906126a6565b60405180910390fd5b6000835167ffffffffffffffff8111156107bb576107ba611ddb565b5b6040519080825280602002602001820160405280156107e95781602001602082028036833780820191505090505b50905060005b84518110156108565761082661080e8287610f0490919063ffffffff16565b6108218387610f1890919063ffffffff16565b610381565b828281518110610839576108386126cf565b5b6020026020010181815250508061084f90612635565b90506107ef565b508091505092915050565b60008060003373ffffffffffffffffffffffffffffffffffffffff1661088561099e565b73ffffffffffffffffffffffffffffffffffffffff1614806108f05750600660003373ffffffffffffffffffffffffffffffffffffffff1673ffffffffffffffffffffffffffffffffffffffff16815260200190815260200160002060009054906101000a900460ff165b61092f576040517f08c379a000000000000000000000000000000000000000000000000000000000815260040161092690612770565b60405180910390fd5b60006005600086815260200190815260200160002090508060000160009054906101000a900460ff168160000160019054906101000a900460ff168260000160029054906101000a900460ff16935093509350509193909250565b610992610ce4565b61099c6000610f2c565b565b6000600360009054906101000a900473ffffffffffffffffffffffffffffffffffffffff16905090565b60056020528060005260406000206000915090508060000160009054906101000a900460ff16908060000160019054906101000a900460ff16908060000160029054906101000a900460ff16905083565b60045481565b610a31610a2a610e04565b8383610ff2565b5050565b60066020528060005260406000206000915054906101000a900460ff1681565b610a5d610ce4565b6001600660008373ffffffffffffffffffffffffffffffffffffffff1673ffffffffffffffffffffffffffffffffffffffff16815260200190815260200160002060006101000a81548160ff02191690831515021790555050565b6000600160008473ffffffffffffffffffffffffffffffffffffffff1673ffffffffffffffffffffffffffffffffffffffff16815260200190815260200160002060008373ffffffffffffffffffffffffffffffffffffffff1673ffffffffffffffffffffffffffffffffffffffff16815260200190815260200160002060009054906101000a900460ff16905092915050565b6000610b56610e04565b90508073ffffffffffffffffffffffffffffffffffffffff168673ffffffffffffffffffffffffffffffffffffffff1614158015610b9b5750610b998682610ab8565b155b15610bdf5780866040517fe237d922000000000000000000000000000000000000000000000000000000008152600401610bd692919061267d565b60405180910390fd5b610bec8686868686611162565b505050505050565b610bfc610ce4565b600073ffffffffffffffffffffffffffffffffffffffff168173ffffffffffffffffffffffffffffffffffffffff1603610c6e5760006040517f1e4fbdf7000000000000000000000000000000000000000000000000000000008152600401610c659190612389565b60405180910390fd5b610c7781610f2c565b50565b60007f01ffc9a7000000000000000000000000000000000000000000000000000000007bffffffffffffffffffffffffffffffffffffffffffffffffffffffff1916827bffffffffffffffffffffffffffffffffffffffffffffffffffffffff1916149050919050565b610cec610e04565b73ffffffffffffffffffffffffffffffffffffffff16610d0a61099e565b73ffffffffffffffffffffffffffffffffffffffff1614610d6957610d2d610e04565b6040517f118cdaa7000000000000000000000000000000000000000000000000000000008152600401610d609190612389565b60405180910390fd5b565b600073ffffffffffffffffffffffffffffffffffffffff168473ffffffffffffffffffffffffffffffffffffffff1603610ddd5760006040517f57f447ce000000000000000000000000000000000000000000000000000000008152600401610dd49190612389565b60405180910390fd5b600080610dea858561126d565b91509150610dfc60008784848761129d565b505050505050565b600033905090565b600073ffffffffffffffffffffffffffffffffffffffff168473ffffffffffffffffffffffffffffffffffffffff1603610e7e5760006040517f57f447ce000000000000000000000000000000000000000000000000000000008152600401610e759190612389565b60405180910390fd5b600073ffffffffffffffffffffffffffffffffffffffff168573ffffffffffffffffffffffffffffffffffffffff1603610ef05760006040517f01a83514000000000000000000000000000000000000000000000000000000008152600401610ee79190612389565b60405180910390fd5b610efd858585858561129d565b5050505050565b600060208202602084010151905092915050565b600060208202602084010151905092915050565b6000600360009054906101000a900473ffffffffffffffffffffffffffffffffffffffff16905081600360006101000a81548173ffffffffffffffffffffffffffffffffffffffff021916908373ffffffffffffffffffffffffffffffffffffffff1602179055508173ffffffffffffffffffffffffffffffffffffffff168173ffffffffffffffffffffffffffffffffffffffff167f8be0079c531659141344cd1fd0a4f28419497f9722a3daafe3b4186f6b6457e060405160405180910390a35050565b600073ffffffffffffffffffffffffffffffffffffffff168273ffffffffffffffffffffffffffffffffffffffff16036110645760006040517fced3e10000000000000000000000000000000000000000000000000000000000815260040161105b9190612389565b60405180910390fd5b80600160008573ffffffffffffffffffffffffffffffffffffffff1673ffffffffffffffffffffffffffffffffffffffff16815260200190815260200160002060008473ffffffffffffffffffffffffffffffffffffffff1673ffffffffffffffffffffffffffffffffffffffff16815260200190815260200160002060006101000a81548160ff0219169083151502179055508173ffffffffffffffffffffffffffffffffffffffff168373ffffffffffffffffffffffffffffffffffffffff167f17307eab39ab6107e8899845ad3d59bd9653f200f220920489ca2b5937696c31836040516111559190611c17565b60405180910390a3505050565b600073ffffffffffffffffffffffffffffffffffffffff168473ffffffffffffffffffffffffffffffffffffffff16036111d45760006040517f57f447ce0000000000000000000000000000000000000000000000000000000081526004016111cb9190612389565b60405180910390fd5b600073ffffffffffffffffffffffffffffffffffffffff168573ffffffffffffffffffffffffffffffffffffffff16036112465760006040517f01a8351400000000000000000000000000000000000000000000000000000000815260040161123d9190612389565b60405180910390fd5b600080611253858561126d565b91509150611264878784848761129d565b50505050505050565b60608060405191506001825283602083015260408201905060018152826020820152604081016040529250929050565b6112a98585858561134f565b600073ffffffffffffffffffffffffffffffffffffffff168473ffffffffffffffffffffffffffffffffffffffff16146113485760006112e7610e04565b90506001845103611337576000611308600086610f1890919063ffffffff16565b90506000611320600086610f1890919063ffffffff16565b90506113308389898585896116fd565b5050611346565b6113458187878787876118b1565b5b505b5050505050565b805182511461139957815181516040517f5b0599910000000000000000000000000000000000000000000000000000000081526004016113909291906126a6565b60405180910390fd5b60006113a3610e04565b905060005b83518110156115b85760006113c68286610f1890919063ffffffff16565b905060006113dd8386610f1890919063ffffffff16565b9050600073ffffffffffffffffffffffffffffffffffffffff168873ffffffffffffffffffffffffffffffffffffffff161461150a57600080600084815260200190815260200160002060008a73ffffffffffffffffffffffffffffffffffffffff1673ffffffffffffffffffffffffffffffffffffffff168152602001908152602001600020549050818110156114b257888183856040517f03dee4c50000000000000000000000000000000000000000000000000000000081526004016114a99493929190612790565b60405180910390fd5b81810360008085815260200190815260200160002060008b73ffffffffffffffffffffffffffffffffffffffff1673ffffffffffffffffffffffffffffffffffffffff16815260200190815260200160002081905550505b600073ffffffffffffffffffffffffffffffffffffffff168773ffffffffffffffffffffffffffffffffffffffff16146115a5578060008084815260200190815260200160002060008973ffffffffffffffffffffffffffffffffffffffff1673ffffffffffffffffffffffffffffffffffffffff168152602001908152602001600020600082825461159d91906127d5565b925050819055505b5050806115b190612635565b90506113a8565b5060018351036116775760006115d8600085610f1890919063ffffffff16565b905060006115f0600085610f1890919063ffffffff16565b90508573ffffffffffffffffffffffffffffffffffffffff168773ffffffffffffffffffffffffffffffffffffffff168473ffffffffffffffffffffffffffffffffffffffff167fc3d58168c5ae7397731d063d5bbf3d657854427343f4c083240f7aacaa2d0f6285856040516116689291906126a6565b60405180910390a450506116f6565b8373ffffffffffffffffffffffffffffffffffffffff168573ffffffffffffffffffffffffffffffffffffffff168273ffffffffffffffffffffffffffffffffffffffff167f4a39dc06d4c0dbc64b70af90fd698a233a518aa5d07e595d983b8c0526c8f7fb86866040516116ed929190612809565b60405180910390a45b5050505050565b60008473ffffffffffffffffffffffffffffffffffffffff163b11156118a9578373ffffffffffffffffffffffffffffffffffffffff1663f23a6e6187878686866040518663ffffffff1660e01b815260040161175e959493929190612895565b6020604051808303816000875af192505050801561179a57506040513d601f19601f820116820180604052508101906117979190612904565b60015b61181e573d80600081146117ca576040519150601f19603f3d011682016040523d82523d6000602084013e6117cf565b606091505b50600081510361181657846040517f57f447ce00000000000000000000000000000000000000000000000000000000815260040161180d9190612389565b60405180910390fd5b805181602001fd5b63f23a6e6160e01b7bffffffffffffffffffffffffffffffffffffffffffffffffffffffff1916817bffffffffffffffffffffffffffffffffffffffffffffffffffffffff1916146118a757846040517f57f447ce00000000000000000000000000000000000000000000000000000000815260040161189e9190612389565b60405180910390fd5b505b505050505050565b60008473ffffffffffffffffffffffffffffffffffffffff163b1115611a5d578373ffffffffffffffffffffffffffffffffffffffff1663bc197c8187878686866040518663ffffffff1660e01b8152600401611912959493929190612931565b6020604051808303816000875af192505050801561194e57506040513d601f19601f8201168201806040525081019061194b9190612904565b60015b6119d2573d806000811461197e576040519150601f19603f3d011682016040523d82523d6000602084013e611983565b606091505b5060008151036119ca57846040517f57f447ce0000000000000000000000000000000000000000000000000000000081526004016119c19190612389565b60405180910390fd5b805181602001fd5b63bc197c8160e01b7bffffffffffffffffffffffffffffffffffffffffffffffffffffffff1916817bffffffffffffffffffffffffffffffffffffffffffffffffffffffff191614611a5b57846040517f57f447ce000000000000000000000000000000000000000000000000000000008152600401611a529190612389565b60405180910390fd5b505b505050505050565b6000604051905090565b600080fd5b600080fd5b600073ffffffffffffffffffffffffffffffffffffffff82169050919050565b6000611aa482611a79565b9050919050565b611ab481611a99565b8114611abf57600080fd5b50565b600081359050611ad181611aab565b92915050565b6000819050919050565b611aea81611ad7565b8114611af557600080fd5b50565b600081359050611b0781611ae1565b92915050565b60008060408385031215611b2457611b23611a6f565b5b6000611b3285828601611ac2565b9250506020611b4385828601611af8565b9150509250929050565b611b5681611ad7565b82525050565b6000602082019050611b716000830184611b4d565b92915050565b60007fffffffff0000000000000000000000000000000000000000000000000000000082169050919050565b611bac81611b77565b8114611bb757600080fd5b50565b600081359050611bc981611ba3565b92915050565b600060208284031215611be557611be4611a6f565b5b6000611bf384828501611bba565b91505092915050565b60008115159050919050565b611c1181611bfc565b82525050565b6000602082019050611c2c6000830184611c08565b92915050565b600060208284031215611c4857611c47611a6f565b5b6000611c5684828501611af8565b91505092915050565b600081519050919050565b600082825260208201905092915050565b60005b83811015611c99578082015181840152602081019050611c7e565b60008484015250505050565b6000601f19601f8301169050919050565b6000611cc182611c5f565b611ccb8185611c6a565b9350611cdb818560208601611c7b565b611ce481611ca5565b840191505092915050565b60006020820190508181036000830152611d098184611cb6565b905092915050565b600060ff82169050919050565b611d2781611d11565b8114611d3257600080fd5b50565b600081359050611d4481611d1e565b92915050565b60038110611d5757600080fd5b50565b600081359050611d6981611d4a565b92915050565b60008060008060808587031215611d8957611d88611a6f565b5b6000611d9787828801611ac2565b9450506020611da887828801611d35565b9350506040611db987828801611d35565b9250506060611dca87828801611d5a565b91505092959194509250565b600080fd5b7f4e487b7100000000000000000000000000000000000000000000000000000000600052604160045260246000fd5b611e1382611ca5565b810181811067ffffffffffffffff82111715611e3257611e31611ddb565b5b80604052505050565b6000611e45611a65565b9050611e518282611e0a565b919050565b600067ffffffffffffffff821115611e7157611e70611ddb565b5b602082029050602081019050919050565b600080fd5b6000611e9a611e9584611e56565b611e3b565b90508083825260208201905060208402830185811115611ebd57611ebc611e82565b5b835b81811015611ee65780611ed28882611af8565b845260208401935050602081019050611ebf565b5050509392505050565b600082601f830112611f0557611f04611dd6565b5b8135611f15848260208601611e87565b91505092915050565b600080fd5b600067ffffffffffffffff821115611f3e57611f3d611ddb565b5b611f4782611ca5565b9050602081019050919050565b82818337600083830152505050565b6000611f76611f7184611f23565b611e3b565b905082815260208101848484011115611f9257611f91611f1e565b5b611f9d848285611f54565b509392505050565b600082601f830112611fba57611fb9611dd6565b5b8135611fca848260208601611f63565b91505092915050565b600080600080600060a08688031215611fef57611fee611a6f565b5b6000611ffd88828901611ac2565b955050602061200e88828901611ac2565b945050604086013567ffffffffffffffff81111561202f5761202e611a74565b5b61203b88828901611ef0565b935050606086013567ffffffffffffffff81111561205c5761205b611a74565b5b61206888828901611ef0565b925050608086013567ffffffffffffffff81111561208957612088611a74565b5b61209588828901611fa5565b9150509295509295909350565b600067ffffffffffffffff8211156120bd576120bc611ddb565b5b602082029050602081019050919050565b60006120e16120dc846120a2565b611e3b565b9050808382526020820190506020840283018581111561210457612103611e82565b5b835b8181101561212d57806121198882611ac2565b845260208401935050602081019050612106565b5050509392505050565b600082601f83011261214c5761214b611dd6565b5b813561215c8482602086016120ce565b91505092915050565b6000806040838503121561217c5761217b611a6f565b5b600083013567ffffffffffffffff81111561219a57612199611a74565b5b6121a685828601612137565b925050602083013567ffffffffffffffff8111156121c7576121c6611a74565b5b6121d385828601611ef0565b9150509250929050565b600081519050919050565b600082825260208201905092915050565b6000819050602082019050919050565b61221281611ad7565b82525050565b60006122248383612209565b60208301905092915050565b6000602082019050919050565b6000612248826121dd565b61225281856121e8565b935061225d836121f9565b8060005b8381101561228e5781516122758882612218565b975061228083612230565b925050600181019050612261565b5085935050505092915050565b600060208201905081810360008301526122b5818461223d565b905092915050565b6122c681611d11565b82525050565b7f4e487b7100000000000000000000000000000000000000000000000000000000600052602160045260246000fd5b6003811061230c5761230b6122cc565b5b50565b600081905061231d826122fb565b919050565b600061232d8261230f565b9050919050565b61233d81612322565b82525050565b600060608201905061235860008301866122bd565b61236560208301856122bd565b6123726040830184612334565b949350505050565b61238381611a99565b82525050565b600060208201905061239e600083018461237a565b92915050565b6123ad81611bfc565b81146123b857600080fd5b50565b6000813590506123ca816123a4565b92915050565b600080604083850312156123e7576123e6611a6f565b5b60006123f585828601611ac2565b9250506020612406858286016123bb565b9150509250929050565b60006020828403121561242657612425611a6f565b5b600061243484828501611ac2565b91505092915050565b6000806040838503121561245457612453611a6f565b5b600061246285828601611ac2565b925050602061247385828601611ac2565b9150509250929050565b600080600080600060a0868803121561249957612498611a6f565b5b60006124a788828901611ac2565b95505060206124b888828901611ac2565b94505060406124c988828901611af8565b93505060606124da88828901611af8565b925050608086013567ffffffffffffffff8111156124fb576124fa611a74565b5b61250788828901611fa5565b9150509295509295909350565b7f4e487b7100000000000000000000000000000000000000000000000000000000600052602260045260246000fd5b6000600282049050600182168061255b57607f821691505b60208210810361256e5761256d612514565b5b50919050565b7f4578506f70756c757343617264733a204f6e6c79204162696c69747920302c3160008201527f20616e64203220616c6c6f7765642e0000000000000000000000000000000000602082015250565b60006125d0602f83611c6a565b91506125db82612574565b604082019050919050565b600060208201905081810360008301526125ff816125c3565b9050919050565b7f4e487b7100000000000000000000000000000000000000000000000000000000600052601160045260246000fd5b600061264082611ad7565b91507fffffffffffffffffffffffffffffffffffffffffffffffffffffffffffffffff820361267257612671612606565b5b600182019050919050565b6000604082019050612692600083018561237a565b61269f602083018461237a565b9392505050565b60006040820190506126bb6000830185611b4d565b6126c86020830184611b4d565b9392505050565b7f4e487b7100000000000000000000000000000000000000000000000000000000600052603260045260246000fd5b7f4578506f70756c757343617264733a20596f7520646f6e27742068617665206160008201527f6363657373206f662074686520636172642e0000000000000000000000000000602082015250565b600061275a603283611c6a565b9150612765826126fe565b604082019050919050565b600060208201905081810360008301526127898161274d565b9050919050565b60006080820190506127a5600083018761237a565b6127b26020830186611b4d565b6127bf6040830185611b4d565b6127cc6060830184611b4d565b95945050505050565b60006127e082611ad7565b91506127eb83611ad7565b925082820190508082111561280357612802612606565b5b92915050565b60006040820190508181036000830152612823818561223d565b90508181036020830152612837818461223d565b90509392505050565b600081519050919050565b600082825260208201905092915050565b600061286782612840565b612871818561284b565b9350612881818560208601611c7b565b61288a81611ca5565b840191505092915050565b600060a0820190506128aa600083018861237a565b6128b7602083018761237a565b6128c46040830186611b4d565b6128d16060830185611b4d565b81810360808301526128e3818461285c565b90509695505050505050565b6000815190506128fe81611ba3565b92915050565b60006020828403121561291a57612919611a6f565b5b6000612928848285016128ef565b91505092915050565b600060a082019050612946600083018861237a565b612953602083018761237a565b8181036040830152612965818661223d565b90508181036060830152612979818561223d565b9050818103608083015261298d818461285c565b9050969550505050505056fea264697066735822122067c0b395594ae5fd3e979b770d6d6807ddbaee034f4be048a3e111df49ad405664736f6c63430008140033",
  "linkReferences": {},
  "deployedLinkReferences": {}
}