{
  "_format": "hh-sol-artifact-1",
  "contractName": "ExPopulusCardGameLogic",
  "sourceName": "contracts/ExPopulusCardGameLogic.sol",
  "abi": [
    {
      "inputs": [],
      "stateMutability": "nonpayable",
      "type": "constructor"
    },
    {
      "inputs": [],
      "name": "battle",
      "outputs": [],
      "stateMutability": "nonpayable",
      "type": "function"
    }
  ],
  "bytecode": "0x6080604052348015600f57600080fd5b50606d80601d6000396000f3fe6080604052348015600f57600080fd5b506004361060285760003560e01c806344e4454514602d575b600080fd5b60336035565b005b56fea2646970667358221220d787c3a7054724283f0247d2ec95b737fb2e519c30d745171e807c74b0f6427c64736f6c63430008140033",
  "linkReferences": {},
  "deployedLinkReferences": {}
}